{
  "contractName": "DateTime",
  "abi": [
    {
      "constant": true,
      "inputs": [
        {
          "name": "year",
          "type": "uint256"
        }
      ],
      "name": "isLeapYear",
      "outputs": [
        {
          "name": "",
          "type": "bool"
        }
      ],
      "payable": false,
      "stateMutability": "pure",
      "type": "function"
    },
    {
      "constant": true,
      "inputs": [
        {
          "name": "year",
          "type": "uint256"
        }
      ],
      "name": "leapYearsBefore",
      "outputs": [
        {
          "name": "",
          "type": "uint256"
        }
      ],
      "payable": false,
      "stateMutability": "pure",
      "type": "function"
    },
    {
      "constant": true,
      "inputs": [
        {
          "name": "month",
          "type": "uint256"
        },
        {
          "name": "year",
          "type": "uint256"
        }
      ],
      "name": "getDaysInMonth",
      "outputs": [
        {
          "name": "",
          "type": "uint256"
        }
      ],
      "payable": false,
      "stateMutability": "pure",
      "type": "function"
    },
    {
      "constant": true,
      "inputs": [
        {
          "name": "timestamp",
          "type": "uint256"
        }
      ],
      "name": "getYear",
      "outputs": [
        {
          "name": "",
          "type": "uint256"
        }
      ],
      "payable": false,
      "stateMutability": "pure",
      "type": "function"
    },
    {
      "constant": true,
      "inputs": [
        {
          "name": "timestamp",
          "type": "uint256"
        }
      ],
      "name": "getMonth",
      "outputs": [
        {
          "name": "",
          "type": "uint256"
        }
      ],
      "payable": false,
      "stateMutability": "pure",
      "type": "function"
    },
    {
      "constant": true,
      "inputs": [
        {
          "name": "timestamp",
          "type": "uint256"
        }
      ],
      "name": "getDay",
      "outputs": [
        {
          "name": "",
          "type": "uint256"
        }
      ],
      "payable": false,
      "stateMutability": "pure",
      "type": "function"
    },
    {
      "constant": true,
      "inputs": [
        {
          "name": "timestamp",
          "type": "uint256"
        }
      ],
      "name": "getHour",
      "outputs": [
        {
          "name": "",
          "type": "uint256"
        }
      ],
      "payable": false,
      "stateMutability": "pure",
      "type": "function"
    },
    {
      "constant": true,
      "inputs": [
        {
          "name": "timestamp",
          "type": "uint256"
        }
      ],
      "name": "getMinute",
      "outputs": [
        {
          "name": "",
          "type": "uint256"
        }
      ],
      "payable": false,
      "stateMutability": "pure",
      "type": "function"
    },
    {
      "constant": true,
      "inputs": [
        {
          "name": "timestamp",
          "type": "uint256"
        }
      ],
      "name": "getSecond",
      "outputs": [
        {
          "name": "",
          "type": "uint256"
        }
      ],
      "payable": false,
      "stateMutability": "pure",
      "type": "function"
    },
    {
      "constant": true,
      "inputs": [
        {
          "name": "timestamp",
          "type": "uint256"
        }
      ],
      "name": "getWeekday",
      "outputs": [
        {
          "name": "",
          "type": "uint256"
        }
      ],
      "payable": false,
      "stateMutability": "pure",
      "type": "function"
    },
    {
      "constant": true,
      "inputs": [
        {
          "name": "year",
          "type": "uint256"
        },
        {
          "name": "month",
          "type": "uint256"
        },
        {
          "name": "day",
          "type": "uint256"
        }
      ],
      "name": "toTimestamp",
      "outputs": [
        {
          "name": "timestamp",
          "type": "uint256"
        }
      ],
      "payable": false,
      "stateMutability": "pure",
      "type": "function"
    },
    {
      "constant": true,
      "inputs": [
        {
          "name": "year",
          "type": "uint256"
        },
        {
          "name": "month",
          "type": "uint256"
        },
        {
          "name": "day",
          "type": "uint256"
        },
        {
          "name": "hour",
          "type": "uint256"
        },
        {
          "name": "minute",
          "type": "uint256"
        }
      ],
      "name": "toTimestamp",
      "outputs": [
        {
          "name": "timestamp",
          "type": "uint256"
        }
      ],
      "payable": false,
      "stateMutability": "pure",
      "type": "function"
    },
    {
      "constant": true,
      "inputs": [
        {
          "name": "year",
          "type": "uint256"
        },
        {
          "name": "month",
          "type": "uint256"
        },
        {
          "name": "day",
          "type": "uint256"
        },
        {
          "name": "hour",
          "type": "uint256"
        }
      ],
      "name": "toTimestamp",
      "outputs": [
        {
          "name": "timestamp",
          "type": "uint256"
        }
      ],
      "payable": false,
      "stateMutability": "pure",
      "type": "function"
    },
    {
      "constant": true,
      "inputs": [
        {
          "name": "year",
          "type": "uint256"
        },
        {
          "name": "month",
          "type": "uint256"
        },
        {
          "name": "day",
          "type": "uint256"
        },
        {
          "name": "hour",
          "type": "uint256"
        },
        {
          "name": "minute",
          "type": "uint256"
        },
        {
          "name": "second",
          "type": "uint256"
        }
      ],
      "name": "toTimestamp",
      "outputs": [
        {
          "name": "timestamp",
          "type": "uint256"
        }
      ],
      "payable": false,
      "stateMutability": "pure",
      "type": "function"
    }
  ],
  "bytecode": "0x608060405234801561001057600080fd5b50610788806100206000396000f3006080604052600436106100cf5763ffffffff7c01000000000000000000000000000000000000000000000000000000006000350416633e239e1a81146100d45780634ac1ad78146100fe5780634fe06988146101165780636052a22b1461013457806365c72840146101585780636a7f0c69146101705780636c24d0e6146101915780638aa001fc146101b857806392d66313146101d0578063a324ad24146101e8578063b199993714610200578063b8d16dbc14610218578063be9afac714610244578063fa93f8831461025f575b600080fd5b3480156100e057600080fd5b506100ec600435610277565b60408051918252519081900360200190f35b34801561010a57600080fd5b506100ec600435610294565b34801561012257600080fd5b506100ec6004356024356044356102a6565b34801561014057600080fd5b506100ec6004356024356044356064356084356102c0565b34801561016457600080fd5b506100ec6004356102db565b34801561017c57600080fd5b506100ec6004356024356044356064356102f0565b34801561019d57600080fd5b506100ec60043560243560443560643560843560a43561030a565b3480156101c457600080fd5b506100ec600435610426565b3480156101dc57600080fd5b506100ec600435610430565b3480156101f457600080fd5b506100ec6004356104ba565b34801561020c57600080fd5b506100ec6004356104cf565b34801561022457600080fd5b506102306004356104ea565b604080519115158252519081900360200190f35b34801561025057600080fd5b506100ec600435602435610528565b34801561026b57600080fd5b506100ec6004356105cf565b60006018603c8084045b0481151561028b57fe5b0690505b919050565b6000600760046201518084040161028b565b60006102b8848484600080600061030a565b949350505050565b60006102d18686868686600061030a565b9695505050505050565b60006102e6826105da565b6040015192915050565b60006103018585858560008061030a565b95945050505050565b6000806103156106fe565b6107b291505b888210156103545761032c826104ea565b1561033f576301e2850083019250610349565b6301e13380830192505b60019091019061031b565b601f8152610361896104ea565b1561037257601d602082015261037a565b601c60208201525b601f60408201819052601e606083018190526080830182905260a0830181905260c0830182905260e0830182905261010083018190526101208301829052610140830152610160820152600191505b878210156103fb57806000198301600c81106103e157fe5b6020020151620151800292909201916001909101906103c9565b505060001994909401620151800293909301610e109290920291909101603c91909102010192915050565b6000603c8261028b565b60008080806301e1338085046107b201915061044d6107b26104cf565b610456836104cf565b039050806301e285000283019250806107b28303036301e1338002830192505b848311156104b25761048a600183036104ea565b1561049d576301e28500830392506104a7565b6301e13380830392505b600182039150610476565b509392505050565b60006104c5826105da565b6020015192915050565b60001901600061019082046064830460048404030192915050565b600060048206156104fd5750600061028f565b606482061561050e5750600161028f565b6101908206156105205750600061028f565b506001919050565b600082600114806105395750826003145b806105445750826005145b8061054f5750826007145b8061055a5750826008145b80610565575082600a145b80610570575082600c145b1561057d5750601f6105c9565b826004148061058c5750826006145b806105975750826009145b806105a2575082600b145b156105af5750601e6105c9565b6105b8826104ea565b156105c55750601d6105c9565b50601c5b92915050565b6000603c8083610281565b6105e261071e565b60008080806105f086610430565b85526105fd6107b26104cf565b8551610608906104cf565b039250826301e285000284019350826107b2866000015103036301e133800284019350600191505b600c821161067257610646828660000151610528565b620151800290508584820111156106635760208501829052610672565b92830192600190910190610630565b600191505b61068985602001518660000151610528565b82116106bc578584620151800111156106a857604085018290526106bc565b620151809390930192600190910190610677565b6106c586610277565b60608601526106d3866105cf565b60808601526106e186610426565b60a08601526106ef86610294565b60c08601525092949350505050565b61018060405190810160405280600c906020820280388339509192915050565b60e0604051908101604052806000815260200160008152602001600081526020016000815260200160008152602001600081526020016000815250905600a165627a7a7230582099fbf4e55e639fa4663ffb24f50e1076a70774ac22b71ba427625998974cf1bf0029",
  "source": "pragma solidity ^0.4.24;\n\ncontract DateTime {\n    // Date and Time utilities for ethereum contracts\n    struct _DateTime {\n        uint year;\n        uint month;\n        uint day;\n        uint hour;\n        uint minute;\n        uint second;\n        uint weekday;\n    }\n\n    uint constant DAY_IN_SECONDS = 86400;\n    uint constant YEAR_IN_SECONDS = 31536000;\n    uint constant LEAP_YEAR_IN_SECONDS = 31622400;\n\n    uint constant HOUR_IN_SECONDS = 3600;\n    uint constant MINUTE_IN_SECONDS = 60;\n\n    uint constant ORIGIN_YEAR = 1970;\n\n    function isLeapYear(uint year) public pure returns (bool) {\n        if (year % 4 != 0) {\n                return false;\n        }\n        if (year % 100 != 0) {\n                return true;\n        }\n        if (year % 400 != 0) {\n                return false;\n        }\n        return true;\n    }\n\n    function leapYearsBefore(uint year) public pure returns (uint) {\n        year -= 1;\n        return year / 4 - year / 100 + year / 400;\n    }\n\n    function getDaysInMonth(uint month, uint year) public pure returns (uint) {\n        if (month == 1 || month == 3 || month == 5 || month == 7 || month == 8 || month == 10 || month == 12) {\n                return 31;\n        }\n        else if (month == 4 || month == 6 || month == 9 || month == 11) {\n                return 30;\n        }\n        else if (isLeapYear(year)) {\n                return 29;\n        }\n        else {\n                return 28;\n        }\n    }\n\n    function parseTimestamp(uint timestamp) internal pure returns (_DateTime dt) {\n        uint secondsAccountedFor = 0;\n        uint buf;\n        uint i;\n\n        // Year\n        dt.year = getYear(timestamp);\n        buf = leapYearsBefore(dt.year) - leapYearsBefore(ORIGIN_YEAR);\n\n        secondsAccountedFor += LEAP_YEAR_IN_SECONDS * buf;\n        secondsAccountedFor += YEAR_IN_SECONDS * (dt.year - ORIGIN_YEAR - buf);\n\n        // Month\n        uint secondsInMonth;\n        for (i = 1; i <= 12; i++) {\n                secondsInMonth = DAY_IN_SECONDS * getDaysInMonth(i, dt.year);\n                if (secondsInMonth + secondsAccountedFor > timestamp) {\n                        dt.month = i;\n                        break;\n                }\n                secondsAccountedFor += secondsInMonth;\n        }\n\n        // Day\n        for (i = 1; i <= getDaysInMonth(dt.month, dt.year); i++) {\n                if (DAY_IN_SECONDS + secondsAccountedFor > timestamp) {\n                        dt.day = i;\n                        break;\n                }\n                secondsAccountedFor += DAY_IN_SECONDS;\n        }\n\n        // Hour\n        dt.hour = getHour(timestamp);\n\n        // Minute\n        dt.minute = getMinute(timestamp);\n\n        // Second\n        dt.second = getSecond(timestamp);\n\n        // Day of week.\n        dt.weekday = getWeekday(timestamp);\n    }\n\n    function getYear(uint timestamp) public pure returns (uint) {\n        uint secondsAccountedFor = 0;\n        uint year;\n        uint numLeapYears;\n\n        // Year\n        year = uint(ORIGIN_YEAR + timestamp / YEAR_IN_SECONDS);\n        numLeapYears = leapYearsBefore(year) - leapYearsBefore(ORIGIN_YEAR);\n\n        secondsAccountedFor += LEAP_YEAR_IN_SECONDS * numLeapYears;\n        secondsAccountedFor += YEAR_IN_SECONDS * (year - ORIGIN_YEAR - numLeapYears);\n\n        while (secondsAccountedFor > timestamp) {\n                if (isLeapYear(uint(year - 1))) {\n                        secondsAccountedFor -= LEAP_YEAR_IN_SECONDS;\n                }\n                else {\n                        secondsAccountedFor -= YEAR_IN_SECONDS;\n                }\n                year -= 1;\n        }\n        return year;\n    }\n\n    function getMonth(uint timestamp) public pure returns (uint) {\n        return parseTimestamp(timestamp).month;\n    }\n\n    function getDay(uint timestamp) public pure returns (uint) {\n        return parseTimestamp(timestamp).day;\n    }\n\n    function getHour(uint timestamp) public pure returns (uint) {\n        return uint((timestamp / 60 / 60) % 24);\n    }\n\n    function getMinute(uint timestamp) public pure returns (uint) {\n        return uint((timestamp / 60) % 60);\n    }\n\n    function getSecond(uint timestamp) public pure returns (uint) {\n        return uint(timestamp % 60);\n    }\n\n    function getWeekday(uint timestamp) public pure returns (uint) {\n        return uint((timestamp / DAY_IN_SECONDS + 4) % 7);\n    }\n\n    function toTimestamp(uint year, uint month, uint day) public pure returns (uint timestamp) {\n        return toTimestamp(year, month, day, 0, 0, 0);\n    }\n\n    function toTimestamp(uint year, uint month, uint day, uint hour) public pure returns (uint timestamp) {\n        return toTimestamp(year, month, day, hour, 0, 0);\n    }\n\n    function toTimestamp(uint year, uint month, uint day, uint hour, uint minute) public pure returns (uint timestamp) {\n        return toTimestamp(year, month, day, hour, minute, 0);\n    }\n\n    function toTimestamp(uint year, uint month, uint day, uint hour, uint minute, uint second) public pure returns (uint timestamp) {\n        uint i;\n\n        // Year\n        for (i = ORIGIN_YEAR; i < year; i++) {\n                if (isLeapYear(i)) {\n                        timestamp += LEAP_YEAR_IN_SECONDS;\n                }\n                else {\n                        timestamp += YEAR_IN_SECONDS;\n                }\n        }\n\n        // Month\n        uint[12] memory monthDayCounts;\n        monthDayCounts[0] = 31;\n        if (isLeapYear(year)) {\n                monthDayCounts[1] = 29;\n        }\n        else {\n                monthDayCounts[1] = 28;\n        }\n        monthDayCounts[2] = 31;\n        monthDayCounts[3] = 30;\n        monthDayCounts[4] = 31;\n        monthDayCounts[5] = 30;\n        monthDayCounts[6] = 31;\n        monthDayCounts[7] = 31;\n        monthDayCounts[8] = 30;\n        monthDayCounts[9] = 31;\n        monthDayCounts[10] = 30;\n        monthDayCounts[11] = 31;\n\n        for (i = 1; i < month; i++) {\n                timestamp += DAY_IN_SECONDS * monthDayCounts[i - 1];\n        }\n\n        // Day\n        timestamp += DAY_IN_SECONDS * (day - 1);\n\n        // Hour\n        timestamp += HOUR_IN_SECONDS * (hour);\n\n        // Minute\n        timestamp += MINUTE_IN_SECONDS * (minute);\n\n        // Second\n        timestamp += second;\n\n        return timestamp;\n    }\n}\n",
  "sourcePath": "/home/queen/run/truffle/nemogrid-smart-contracts/contracts/DateTime.sol",
  "compiler": {
    "name": "solc",
    "version": "0.4.24+commit.e67f0147.Emscripten.clang"
  },
  "schemaVersion": "2.0.1",
  "updatedAt": "2018-12-12T15:21:05.995Z"
}