{
  "contractName": "GroupsManager",
  "abi": [
    {
      "constant": false,
      "inputs": [],
      "name": "renounceOwnership",
      "outputs": [],
      "payable": false,
      "stateMutability": "nonpayable",
      "type": "function"
    },
    {
      "constant": true,
      "inputs": [],
      "name": "owner",
      "outputs": [
        {
          "name": "",
          "type": "address"
        }
      ],
      "payable": false,
      "stateMutability": "view",
      "type": "function"
    },
    {
      "constant": true,
      "inputs": [],
      "name": "isOwner",
      "outputs": [
        {
          "name": "",
          "type": "bool"
        }
      ],
      "payable": false,
      "stateMutability": "view",
      "type": "function"
    },
    {
      "constant": false,
      "inputs": [
        {
          "name": "newOwner",
          "type": "address"
        }
      ],
      "name": "transferOwnership",
      "outputs": [],
      "payable": false,
      "stateMutability": "nonpayable",
      "type": "function"
    },
    {
      "constant": true,
      "inputs": [],
      "name": "token",
      "outputs": [
        {
          "name": "",
          "type": "address"
        }
      ],
      "payable": false,
      "stateMutability": "view",
      "type": "function"
    },
    {
      "inputs": [
        {
          "name": "_token",
          "type": "address"
        }
      ],
      "payable": false,
      "stateMutability": "nonpayable",
      "type": "constructor"
    },
    {
      "anonymous": false,
      "inputs": [
        {
          "indexed": false,
          "name": "dso",
          "type": "address"
        },
        {
          "indexed": false,
          "name": "token",
          "type": "address"
        }
      ],
      "name": "AddedGroup",
      "type": "event"
    },
    {
      "anonymous": false,
      "inputs": [
        {
          "indexed": true,
          "name": "previousOwner",
          "type": "address"
        },
        {
          "indexed": true,
          "name": "newOwner",
          "type": "address"
        }
      ],
      "name": "OwnershipTransferred",
      "type": "event"
    },
    {
      "constant": false,
      "inputs": [
        {
          "name": "_dso",
          "type": "address"
        }
      ],
      "name": "addGroup",
      "outputs": [],
      "payable": false,
      "stateMutability": "nonpayable",
      "type": "function"
    },
    {
      "constant": true,
      "inputs": [
        {
          "name": "_dso",
          "type": "address"
        }
      ],
      "name": "getFlag",
      "outputs": [
        {
          "name": "",
          "type": "bool"
        }
      ],
      "payable": false,
      "stateMutability": "view",
      "type": "function"
    },
    {
      "constant": true,
      "inputs": [
        {
          "name": "_dso",
          "type": "address"
        }
      ],
      "name": "getAddress",
      "outputs": [
        {
          "name": "",
          "type": "address"
        }
      ],
      "payable": false,
      "stateMutability": "view",
      "type": "function"
    }
  ],
  "bytecode": "0x608060405234801561001057600080fd5b50604051602080612cf0833981016040819052905160008054600160a060020a03191633178082559192600160a060020a0392909216917f8be0079c531659141344cd1fd0a4f28419497f9722a3daafe3b4186f6b6457e0908290a360018054600160a060020a031916600160a060020a0392909216919091179055612c558061009b6000396000f30060806040526004361061008d5763ffffffff7c0100000000000000000000000000000000000000000000000000000000600035041663357e47fe8114610092578063715018a6146100c75780638da5cb5b146100de5780638f32d59b1461010f578063ae22c57d14610124578063f2fde38b14610145578063f9515f1b14610166578063fc0c546a14610187575b600080fd5b34801561009e57600080fd5b506100b3600160a060020a036004351661019c565b604080519115158252519081900360200190f35b3480156100d357600080fd5b506100dc6101ba565b005b3480156100ea57600080fd5b506100f3610224565b60408051600160a060020a039092168252519081900360200190f35b34801561011b57600080fd5b506100b3610233565b34801561013057600080fd5b506100f3600160a060020a0360043516610244565b34801561015157600080fd5b506100dc600160a060020a0360043516610262565b34801561017257600080fd5b506100dc600160a060020a0360043516610281565b34801561019357600080fd5b506100f36103bf565b600160a060020a031660009081526003602052604090205460ff1690565b6101c2610233565b15156101cd57600080fd5b60008054604051600160a060020a03909116907f8be0079c531659141344cd1fd0a4f28419497f9722a3daafe3b4186f6b6457e0908390a36000805473ffffffffffffffffffffffffffffffffffffffff19169055565b600054600160a060020a031690565b600054600160a060020a0316331490565b600160a060020a039081166000908152600260205260409020541690565b61026a610233565b151561027557600080fd5b61027e816103ce565b50565b610289610233565b151561029457600080fd5b80600160a060020a03166102a6610224565b600160a060020a031614156102ba57600080fd5b600160a060020a03811660009081526003602052604090205460ff16156102e057600080fd5b6001548190600160a060020a03166102f661044b565b600160a060020a03928316815291166020820152604080519182900301906000f080158015610329573d6000803e3d6000fd5b50600160a060020a038281166000818152600260209081526040808320805473ffffffffffffffffffffffffffffffffffffffff1916968616969096179095556003815290849020805460ff191660019081179091555484519283529092169181019190915281517f8c039682f59f62711bd34d9ac9dc1e493e601c8e4ea22bc21efeef6333ce88a2929181900390910190a150565b600154600160a060020a031681565b600160a060020a03811615156103e357600080fd5b60008054604051600160a060020a03808516939216917f8be0079c531659141344cd1fd0a4f28419497f9722a3daafe3b4186f6b6457e091a36000805473ffffffffffffffffffffffffffffffffffffffff1916600160a060020a0392909216919091179055565b6040516127ce8061045c833901905600608060405234801561001057600080fd5b506040516040806127ce833981016040819052815160209092015160008054600160a060020a03191633178082559192600160a060020a0392909216917f8be0079c531659141344cd1fd0a4f28419497f9722a3daafe3b4186f6b6457e0908290a360028054600160a060020a03938416600160a060020a03199182161790915560018054929093169116179055612721806100ad6000396000f3006080604052600436106101ed5763ffffffff7c010000000000000000000000000000000000000000000000000000000060003504166322f8dae081146101f2578063278ecde1146102235780633e239e1a1461023d57806344c9af28146102675780634a583ec5146102a35780634ac1ad78146102be5780634fe06988146102d65780636052a22b146102f457806365c72840146103185780636a7f0c69146103305780636c24d0e6146103515780636f2cd5ad14610378578063715018a6146103c2578063796c5b08146103d7578063805484b7146103ef57806383b572d1146104075780638aa001fc1461041f5780638da5cb5b146104375780638f32d59b1461044c5780639067b6771461047557806392d663131461048d57806395fdc999146104a5578063995e4339146104bd5780639a9c29f6146104e55780639e11b66c14610500578063a0c022af14610518578063a324ad2414610542578063a6e915b61461055a578063b199993714610575578063b8d16dbc1461058d578063bc2be1be146105a5578063be9afac7146105bd578063cb14f572146105d8578063d7744b9f146105ed578063dadcb23a14610605578063dbb346671461061d578063e55ae4e814610635578063ee1e84f61461064d578063f2fde38b14610668578063fa93f88314610689575b600080fd5b3480156101fe57600080fd5b506102076106a1565b60408051600160a060020a039092168252519081900360200190f35b34801561022f57600080fd5b5061023b6004356106b0565b005b34801561024957600080fd5b5061025560043561083c565b60408051918252519081900360200190f35b34801561027357600080fd5b5061027f600435610859565b6040518082600881111561028f57fe5b60ff16815260200191505060405180910390f35b3480156102af57600080fd5b5061023b600435602435610871565b3480156102ca57600080fd5b50610255600435610a10565b3480156102e257600080fd5b50610255600435602435604435610a22565b34801561030057600080fd5b50610255600435602435604435606435608435610a3c565b34801561032457600080fd5b50610255600435610a57565b34801561033c57600080fd5b50610255600435602435604435606435610a6c565b34801561035d57600080fd5b5061025560043560243560443560643560843560a435610a86565b34801561038457600080fd5b5061023b600160a060020a036004358116906024359060ff60443516906064351660843560a43560c43560e435610104356101243561014435610ba2565b3480156103ce57600080fd5b5061023b61104b565b3480156103e357600080fd5b506102556004356110b5565b3480156103fb57600080fd5b506102556004356110ca565b34801561041357600080fd5b506102556004356110df565b34801561042b57600080fd5b506102556004356110f4565b34801561044357600080fd5b506102076110fe565b34801561045857600080fd5b5061046161110d565b604080519115158252519081900360200190f35b34801561048157600080fd5b5061025560043561111e565b34801561049957600080fd5b50610255600435611134565b3480156104b157600080fd5b506104616004356111be565b3480156104c957600080fd5b506104d56004356111d3565b6040518082600981111561028f57fe5b3480156104f157600080fd5b5061023b6004356024356111f0565b34801561050c57600080fd5b506102556004356112f6565b34801561052457600080fd5b50610255600160a060020a036004351660243560ff6044351661130b565b34801561054e57600080fd5b506102556004356113f1565b34801561056657600080fd5b5061023b600435602435611406565b34801561058157600080fd5b50610255600435611686565b34801561059957600080fd5b506104616004356116a1565b3480156105b157600080fd5b506102556004356116df565b3480156105c957600080fd5b506102556004356024356116f4565b3480156105e457600080fd5b5061020761179b565b3480156105f957600080fd5b506102076004356117aa565b34801561061157600080fd5b506102556004356117c8565b34801561062957600080fd5b506102556004356117dd565b34801561064157600080fd5b506102076004356117f2565b34801561065957600080fd5b5061023b60043560243561180d565b34801561067457600080fd5b5061023b600160a060020a0360043516611d0d565b34801561069557600080fd5b50610255600435611d2c565b600154600160a060020a031681565b600254600160a060020a031633146106c757600080fd5b60008181526004602052604090205460ff1615156001146106e757600080fd5b600260008281526003602052604090206010015460ff16600881111561070957fe5b1461071357600080fd5b600081815260036020526040902060020154421161073057600080fd5b600154600254600083815260036020908152604080832060090154815160e060020a63a9059cbb028152600160a060020a03958616600482015260248101919091529051939094169363a9059cbb9360448083019491928390030190829087803b15801561079d57600080fd5b505af11580156107b1573d6000803e3d6000fd5b505050506040513d60208110156107c757600080fd5b50506000818152600360209081526040918290206010018054600861ff00199091166102001760ff19161790556002548251600160a060020a03909116815290810183905281517fb4422e9864da3a48df6810b6e9323b4a9427b846ae7dcea0e87c4bcd8b88ac88929181900390910190a150565b60006018603c8084045b0481151561085057fe5b0690505b919050565b60009081526003602052604090206010015460ff1690565b600082815260036020526040902054600160a060020a0316331461089457600080fd5b60008281526004602052604090205460ff1615156001146108b457600080fd5b600460008381526003602052604090206010015460ff1660088111156108d657fe5b146108e057600080fd5b600082815260036020908152604091829020600e810184905580546002909101548351600160a060020a039092168252918101919091528082018490526060810183905290517f38588dccde0449f4799cf1303b5daed1e5d890c381ba71306d00581d9efb5ffb9181900360800190a16000828152600360205260409020600e810154600d9091015414156109a65761097882611d37565b6040517febcb560de0775ec7103e362a2b32b3e5bc327f64ed6eabd2b526161a918b0ae790600090a1610a0c565b60008281526003602090815260409182902060108101805460ff19166005179055600d810154600e9091015483519182529181019190915281517f58c4a7fd226e8edfba8d6e3d0afb0a6049e6ce5324e703b082a562f2388abb17929181900390910190a15b5050565b60006007600462015180840401610850565b6000610a348484846000806000610a86565b949350505050565b6000610a4d86868686866000610a86565b9695505050505050565b6000610a62826120d0565b6040015192915050565b6000610a7d85858585600080610a86565b95945050505050565b600080610a91612697565b6107b291505b88821015610ad057610aa8826116a1565b15610abb576301e2850083019250610ac5565b6301e13380830192505b600190910190610a97565b601f8152610add896116a1565b15610aee57601d6020820152610af6565b601c60208201525b601f60408201819052601e606083018190526080830182905260a0830181905260c0830182905260e0830182905261010083018190526101208301829052610140830152610160820152600191505b87821015610b7757806000198301600c8110610b5d57fe5b602002015162015180029290920191600190910190610b45565b505060001994909401620151800293909301610e109290920291909101603c91909102010192915050565b6000610baf8c8c8c61130b565b600254909150600160a060020a03163314610bc957600080fd5b60008181526004602052604090205460ff1615610be557600080fd5b428b11610bf157600080fd5b610bfb8b8b6121f4565b1515610c0657600080fd5b600160a060020a0389161515610c1b57600080fd5b600254600160a060020a038a811691161415610c3657600080fd5b600160a060020a03898116908d161415610c4f57600080fd5b868810610c5b57600080fd5b610c6787898887612294565b1515600114610c7557600080fd5b600154600254604080517fdd62ed3e000000000000000000000000000000000000000000000000000000008152600160a060020a0392831660048201523060248201529051919092169163dd62ed3e9160448083019260209291908290030181600087803b158015610ce657600080fd5b505af1158015610cfa573d6000803e3d6000fd5b505050506040513d6020811015610d1057600080fd5b5051841115610d1e57600080fd5b60008181526003602052604090206002018b9055610d3c8b8b6122c6565b60008281526003602081905260409091209081019190915560040180548b919060ff19166001836002811115610d6e57fe5b0217905550886003600083815260200190815260200160002060010160006101000a815481600160a060020a030219169083600160a060020a031602179055508b6003600083815260200190815260200160002060000160006101000a815481600160a060020a030219169083600160a060020a031602179055508760036000838152602001908152602001600020600501819055508660036000838152602001908152602001600020600601819055508560036000838152602001908152602001600020600701819055508460036000838152602001908152602001600020600801819055508360036000838152602001908152602001600020600901819055508260036000838152602001908152602001600020600a0181905550600060036000838152602001908152602001600020600b0181905550600060036000838152602001908152602001600020600c01819055508160036000838152602001908152602001600020600f018190555060026003600083815260200190815260200160002060100160006101000a81548160ff02191690836008811115610f1157fe5b0217905550600081815260036020818152604080842060108101805461ff0019166101001790556004808452828620805460ff191660019081179091555460025495855260099092015483517f23b872dd000000000000000000000000000000000000000000000000000000008152600160a060020a0396871692810192909252306024830152604482015291519316936323b872dd93606480840194939192918390030190829087803b158015610fc857600080fd5b505af1158015610fdc573d6000803e3d6000fd5b505050506040513d6020811015610ff257600080fd5b505060408051600160a060020a038e168152602081018d905280820183905290517f0e00eb3434eeed137478dadba5581f87fdda6f16b438d9d1b616b24093bfbb429181900360600190a1505050505050505050505050565b61105361110d565b151561105e57600080fd5b60008054604051600160a060020a03909116907f8be0079c531659141344cd1fd0a4f28419497f9722a3daafe3b4186f6b6457e0908390a36000805473ffffffffffffffffffffffffffffffffffffffff19169055565b60009081526003602052604090206008015490565b60009081526003602052604090206006015490565b6000908152600360205260409020600a015490565b6000603c82610850565b600054600160a060020a031690565b600054600160a060020a0316331490565b6000908152600360208190526040909120015490565b60008080806301e1338085046107b20191506111516107b2611686565b61115a83611686565b039050806301e285000283019250806107b28303036301e1338002830192505b848311156111b65761118e600183036116a1565b156111a1576301e28500830392506111ab565b6301e13380830392505b60018203915061117a565b509392505050565b60009081526004602052604090205460ff1690565b600090815260036020526040902060100154610100900460ff1690565b600254600160a060020a0316331461120757600080fd5b60008281526004602052604090205460ff16151560011461122757600080fd5b600360008381526003602052604090206010015460ff16600881111561124957fe5b1461125357600080fd5b6000828152600360208190526040909120015442101561127257600080fd5b600082815260036020908152604091829020600d810184905560108101805460ff1916600417905580546002909101548351600160a060020a039092168252918101919091528082018490526060810183905290517f6f072ff41a58c73c1f7253e82b3e50e1083b438aa76a962283c334bb6797d355916080908290030190a15050565b60009081526003602052604090206005015490565b60008383836040516020018084600160a060020a0316600160a060020a03166c0100000000000000000000000002815260140183815260200182600281111561135057fe5b60ff167f010000000000000000000000000000000000000000000000000000000000000002815260010193505050506040516020818303038152906040526040518082805190602001908083835b602083106113bd5780518252601f19909201916020918201910161139e565b5181516020939093036101000a60001901801990911692169190911790526040519201829003909120979650505050505050565b60006113fc826120d0565b6020015192915050565b600082815260036020526040902054600160a060020a0316331461142957600080fd5b60008281526004602052604090205460ff16151560011461144957600080fd5b6000828152600360205260409020600a0154811461146657600080fd5b600260008381526003602052604090206010015460ff16600881111561148857fe5b1461149257600080fd5b60015460008381526003602090815260408083205481517fdd62ed3e000000000000000000000000000000000000000000000000000000008152600160a060020a039182166004820152306024820152915194169363dd62ed3e93604480840194938390030190829087803b15801561150a57600080fd5b505af115801561151e573d6000803e3d6000fd5b505050506040513d602081101561153457600080fd5b505181111561154257600080fd5b60008281526003602052604090206002015442111561156057600080fd5b60015460008381526003602090815260408083208054600a9091015482517f23b872dd000000000000000000000000000000000000000000000000000000008152600160a060020a039283166004820152306024820152604481019190915291519416936323b872dd93606480840194938390030190829087803b1580156115e757600080fd5b505af11580156115fb573d6000803e3d6000fd5b505050506040513d602081101561161157600080fd5b505060008281526003602081815260409283902060108101805460ff191690931790925581546002909201548351600160a060020a0390931683529082015280820184905290517ff459461dee84cd924a71936241b498c6f4f4ef408685363ec9d761ad4fc931299181900360600190a15050565b60001901600061019082046064830460048404030192915050565b600060048206156116b457506000610854565b60648206156116c557506001610854565b6101908206156116d757506000610854565b506001919050565b60009081526003602052604090206002015490565b600082600114806117055750826003145b806117105750826005145b8061171b5750826007145b806117265750826008145b80611731575082600a145b8061173c575082600c145b156117495750601f611795565b82600414806117585750826006145b806117635750826009145b8061176e575082600b145b1561177b5750601e611795565b611784826116a1565b156117915750601d611795565b50601c5b92915050565b600254600160a060020a031681565b600090815260036020526040902060010154600160a060020a031690565b60009081526003602052604090206007015490565b60009081526003602052604090206009015490565b600090815260036020526040902054600160a060020a031690565b60008281526003602052604081206001015481908190600160a060020a0316331461183757600080fd5b600560008681526003602052604090206010015460ff16600881111561185957fe5b1461186357600080fd5b6000858152600360205260409020600a81015460099091015461188b9163ffffffff61238916565b6000868152600360205260409020600f01549093506118c3906118b69060649063ffffffff6123a616565b849063ffffffff6123a616565b91506118d5838363ffffffff6123c916565b60008681526003602090815260409182902080546002909101548351600160a060020a0390921682529181019190915280820188905290519192507f392f657705b9606466a901c634faa6b0e79af5e7fb8e2b763927034058156cbd919081900360600190a16000858152600360205260409020600d0154841415611a26576000858152600360209081526040808320601001805461ff001916610800179055600154600254825160e060020a63a9059cbb028152600160a060020a03918216600482015260248101879052925191169363a9059cbb93604480850194919392918390030190829087803b1580156119cc57600080fd5b505af11580156119e0573d6000803e3d6000fd5b505050506040513d60208110156119f657600080fd5b50506040517f472e2393df597d3110ae096cb0affc795abec1d071054cc38d847069abfdad2a90600090a1611c04565b6000858152600360205260409020600e0154841415611b1157600085815260036020908152604080832060108101805461ff0019166107001790556001549054825160e060020a63a9059cbb028152600160a060020a03918216600482015260248101879052925191169363a9059cbb93604480850194919392918390030190829087803b158015611ab757600080fd5b505af1158015611acb573d6000803e3d6000fd5b505050506040513d6020811015611ae157600080fd5b50506040517fe3ceb394561de52341d4a80e843b8c71fd9fe8c1f6211ade72a27ee3ec7bd60f90600090a1611c04565b600085815260036020526040808220601001805461ff00191661090017905560015481517f42966c68000000000000000000000000000000000000000000000000000000008152600481018590529151600160a060020a03909116926342966c68926024808201939182900301818387803b158015611b8f57600080fd5b505af1158015611ba3573d6000803e3d6000fd5b50506040517f6d1b57e117115db822a9ce91dddfa2a539c4619d55228ee8f35bef8c4140ce2e925060009150a16040805182815290517f0c82209729ff660fa3b00f15bdb9b29b7a2cb65045cae89fd628796c5a6483a49181900360200190a15b60018054600087815260036020908152604080832090940154845160e060020a63a9059cbb028152600160a060020a03918216600482015260248101889052945193169363a9059cbb9360448083019491928390030190829087803b158015611c6c57600080fd5b505af1158015611c80573d6000803e3d6000fd5b505050506040513d6020811015611c9657600080fd5b505060008581526003602052604090819020601001805460ff19166007179081905590517f9e56b6af698f95d689541b077c89deb562087d99210509e8f4fe11910ac817029160ff610100909104169080826009811115611cf357fe5b60ff16815260200191505060405180910390a15050505050565b611d1561110d565b1515611d2057600080fd5b611d29816123e0565b50565b6000603c8083610846565b6000818152600360205260408120600d810154600590910154909190819081908411611deb576000858152600360205260408120600a810154600990910154919450611d89919063ffffffff61238916565b600086815260036020908152604091829020601001805461ff001916610300179055815186815290810183905281519294507f84b55a87ae61f998fb034c3393da4f6f2e5eca7340f11c89e5c8e827afcea86f929081900390910190a16120be565b60008581526003602052604090206005015484118015611e1c57506000858152600360205260409020600601548411155b15611f1c57600085815260036020526040902060050154611e4490859063ffffffff6123c916565b600086815260036020526040902060070154909150611e6a90829063ffffffff61245d16565b600086815260036020526040902060090154909350611e8f908463ffffffff6123c916565b6000868152600360205260409020600a0154909250611eb590839063ffffffff61238916565b6000868152600360205260409020601001805491935060049161ff001916610100830217905550604080518481526020810184905281517fa9b6969357a18fa922cb362b2428d5f0dc575c92e5fac14559e63497ea049435929181900390910190a16120be565b600085815260036020526040902060060154611f3f90859063ffffffff6123c916565b600086815260036020526040902060080154909150611f6590829063ffffffff61245d16565b6000868152600360205260409020600a01549093508310612013576000858152600360205260408120600a810154600990910154919350611fac919063ffffffff61238916565b6000868152600360205260409020601001805491945060069161ff001916610100830217905550604080518481526020810184905281517feaacd3d4ee45b24288f5b29a1630c89a05ecba6583aae3c092f12d0365faa305929181900390910190a16120be565b6000858152600360205260409020600a0154612035908463ffffffff6123c916565b60008681526003602052604090206009015490925061205b90849063ffffffff61238916565b6000868152600360205260409020601001805491945060059161ff001916610100830217905550604080518481526020810184905281517f28c619c49605c492d23419d5ffca91159426d25afdf8eec9d22f690c4350a3c5929181900390910190a15b6120c985848461248b565b5050505050565b6120d86126b7565b60008080806120e686611134565b85526120f36107b2611686565b85516120fe90611686565b039250826301e285000284019350826107b2866000015103036301e133800284019350600191505b600c82116121685761213c8286600001516116f4565b620151800290508584820111156121595760208501829052612168565b92830192600190910190612126565b600191505b61217f856020015186600001516116f4565b82116121b25785846201518001111561219e57604085018290526121b2565b62015180939093019260019091019061216d565b6121bb8661083c565b60608601526121c986611d2c565b60808601526121d7866110f4565b60a08601526121e586610a10565b60c08601525092949350505050565b60008082600281111561220357fe5b14156122525761221283610a57565b600114801561222757506122258361083c565b155b8015612239575061223783611d2c565b155b801561224b5750612249836110f4565b155b9050611795565b600182600281111561226057fe5b141561226f576122258361083c565b600282600281111561227d57fe5b141561228c5761223783611d2c565b506000611795565b6000806122a7868663ffffffff6123c916565b90506122b9818563ffffffff61245d16565b9290921495945050505050565b6000808260028111156122d557fe5b14156123145761224b6122e784611134565b6122f0856113f1565b61230a6122fc876113f1565b61230588611134565b6116f4565b6017603b80610a86565b600182600281111561232257fe5b14156123465761224b61233484611134565b61233d856113f1565b61230a86610a57565b600282600281111561235457fe5b141561228c5761224b61236684611134565b61236f856113f1565b61237886610a57565b6123818761083c565b603b80610a86565b60008282018381101561239b57600080fd5b8091505b5092915050565b6000808083116123b557600080fd5b82848115156123c057fe5b04949350505050565b600080838311156123d957600080fd5b5050900390565b600160a060020a03811615156123f557600080fd5b60008054604051600160a060020a03808516939216917f8be0079c531659141344cd1fd0a4f28419497f9722a3daafe3b4186f6b6457e091a36000805473ffffffffffffffffffffffffffffffffffffffff1916600160a060020a0392909216919091179055565b600080831515612470576000915061239f565b5082820282848281151561248057fe5b041461239b57600080fd5b6000838152600360208190526040909120600b8101849055600c810183905560100154610100900460ff1660098111156124c157fe5b14612560576001546002546000858152600360209081526040808320600b0154815160e060020a63a9059cbb028152600160a060020a03958616600482015260248101919091529051939094169363a9059cbb9360448083019491928390030190829087803b15801561253357600080fd5b505af1158015612547573d6000803e3d6000fd5b505050506040513d602081101561255d57600080fd5b50505b6006600084815260036020526040902060100154610100900460ff16600981111561258757fe5b146126245760015460008481526003602090815260408083208054600c90910154825160e060020a63a9059cbb028152600160a060020a0392831660048201526024810191909152915194169363a9059cbb93604480840194938390030190829087803b1580156125f757600080fd5b505af115801561260b573d6000803e3d6000fd5b505050506040513d602081101561262157600080fd5b50505b60008381526003602052604090819020601001805460ff19166006179081905590517fe0449c44a78638ebb7df243f5f79ca5e160e2a1ad65fd2c39fcbfcb866aa23cc9160ff61010090910416908082600981111561267f57fe5b60ff16815260200191505060405180910390a1505050565b61018060405190810160405280600c906020820280388339509192915050565b60e0604051908101604052806000815260200160008152602001600081526020016000815260200160008152602001600081526020016000815250905600a165627a7a7230582064600f9f341bad2f001b38a2de9231001d1f50e598aa2ee7a2f419dbc44f29170029a165627a7a72305820ef54cb2943898e27e82d5a8d14895c58727a8cff7946d6b602343cead3d9f5b10029",
  "source": "pragma solidity ^0.4.23;\n\nimport \"../node_modules/openzeppelin-solidity/contracts/ownership/Ownable.sol\";\n\nimport \"./MarketsManager.sol\";\n\n/// Manager of markets groups\ncontract GroupsManager is Ownable{\n\n    /// Address of the token\n    address public token;\n\n    /// Mapping containing the managers of the market groups\n    mapping (address => MarketsManager) groups;\n\n    /// Mapping to check the group existence\n    mapping (address => bool) groupsFlags;\n\n    // Events\n\n    /// A group has been added\n    /// @param dso The DSO wallet\n    /// @param token The NemoGrid token address\n    event AddedGroup(address dso, address token);\n\n    /// Constructor\n    /// @param _token The NemoGrid token address\n    constructor(address _token) public {\n        token = _token;\n    }\n\n    /// Add a markets group, defined by the couple (dso, token)\n    /// @param _dso The DSO wallet\n    function addGroup(address _dso) onlyOwner public {\n\n        // The dso cannot be also the owner\n        require(owner() != _dso);\n\n        // Check if this markets set already exists\n        require(groupsFlags[_dso] == false);\n\n        // a set of markets is defined by the triple (dso, player, token)\n        groups[_dso] = new MarketsManager(_dso, token);\n        groupsFlags[_dso] = true;\n\n        emit AddedGroup(_dso, token);\n    }\n\n    // View functions\n\n    /// @param _dso The DSO wallet\n    /// @return TRUE if the group exists, FALSE otherwise\n    function getFlag(address _dso) view public returns(bool)         { return groupsFlags[_dso]; }\n\n    /// @param _dso The DSO wallet\n    /// @return the group address\n    function getAddress(address _dso) view public returns(address)   { return address(groups[_dso]); }\n}\n",
  "sourcePath": "/home/queen/run/truffle/nemogrid-smart-contracts/contracts/GroupsManager.sol",
  "compiler": {
    "name": "solc",
    "version": "0.4.24+commit.e67f0147.Emscripten.clang"
  },
  "schemaVersion": "2.0.1",
  "updatedAt": "2018-12-13T09:56:14.273Z"
}