{
  "contractName": "MarketsManager",
  "abi": [
    {
      "constant": true,
      "inputs": [],
      "name": "ngt",
      "outputs": [
        {
          "name": "",
          "type": "address"
        }
      ],
      "payable": false,
      "stateMutability": "view",
      "type": "function"
    },
    {
      "constant": true,
      "inputs": [
        {
          "name": "timestamp",
          "type": "uint256"
        }
      ],
      "name": "getHour",
      "outputs": [
        {
          "name": "",
          "type": "uint256"
        }
      ],
      "payable": false,
      "stateMutability": "pure",
      "type": "function"
    },
    {
      "constant": true,
      "inputs": [
        {
          "name": "timestamp",
          "type": "uint256"
        }
      ],
      "name": "getWeekday",
      "outputs": [
        {
          "name": "",
          "type": "uint256"
        }
      ],
      "payable": false,
      "stateMutability": "pure",
      "type": "function"
    },
    {
      "constant": true,
      "inputs": [
        {
          "name": "year",
          "type": "uint256"
        },
        {
          "name": "month",
          "type": "uint256"
        },
        {
          "name": "day",
          "type": "uint256"
        }
      ],
      "name": "toTimestamp",
      "outputs": [
        {
          "name": "timestamp",
          "type": "uint256"
        }
      ],
      "payable": false,
      "stateMutability": "pure",
      "type": "function"
    },
    {
      "constant": true,
      "inputs": [
        {
          "name": "year",
          "type": "uint256"
        },
        {
          "name": "month",
          "type": "uint256"
        },
        {
          "name": "day",
          "type": "uint256"
        },
        {
          "name": "hour",
          "type": "uint256"
        },
        {
          "name": "minute",
          "type": "uint256"
        }
      ],
      "name": "toTimestamp",
      "outputs": [
        {
          "name": "timestamp",
          "type": "uint256"
        }
      ],
      "payable": false,
      "stateMutability": "pure",
      "type": "function"
    },
    {
      "constant": true,
      "inputs": [
        {
          "name": "timestamp",
          "type": "uint256"
        }
      ],
      "name": "getDay",
      "outputs": [
        {
          "name": "",
          "type": "uint256"
        }
      ],
      "payable": false,
      "stateMutability": "pure",
      "type": "function"
    },
    {
      "constant": true,
      "inputs": [
        {
          "name": "year",
          "type": "uint256"
        },
        {
          "name": "month",
          "type": "uint256"
        },
        {
          "name": "day",
          "type": "uint256"
        },
        {
          "name": "hour",
          "type": "uint256"
        }
      ],
      "name": "toTimestamp",
      "outputs": [
        {
          "name": "timestamp",
          "type": "uint256"
        }
      ],
      "payable": false,
      "stateMutability": "pure",
      "type": "function"
    },
    {
      "constant": true,
      "inputs": [
        {
          "name": "year",
          "type": "uint256"
        },
        {
          "name": "month",
          "type": "uint256"
        },
        {
          "name": "day",
          "type": "uint256"
        },
        {
          "name": "hour",
          "type": "uint256"
        },
        {
          "name": "minute",
          "type": "uint256"
        },
        {
          "name": "second",
          "type": "uint256"
        }
      ],
      "name": "toTimestamp",
      "outputs": [
        {
          "name": "timestamp",
          "type": "uint256"
        }
      ],
      "payable": false,
      "stateMutability": "pure",
      "type": "function"
    },
    {
      "constant": false,
      "inputs": [],
      "name": "renounceOwnership",
      "outputs": [],
      "payable": false,
      "stateMutability": "nonpayable",
      "type": "function"
    },
    {
      "constant": true,
      "inputs": [
        {
          "name": "timestamp",
          "type": "uint256"
        }
      ],
      "name": "getSecond",
      "outputs": [
        {
          "name": "",
          "type": "uint256"
        }
      ],
      "payable": false,
      "stateMutability": "pure",
      "type": "function"
    },
    {
      "constant": true,
      "inputs": [],
      "name": "owner",
      "outputs": [
        {
          "name": "",
          "type": "address"
        }
      ],
      "payable": false,
      "stateMutability": "view",
      "type": "function"
    },
    {
      "constant": true,
      "inputs": [],
      "name": "isOwner",
      "outputs": [
        {
          "name": "",
          "type": "bool"
        }
      ],
      "payable": false,
      "stateMutability": "view",
      "type": "function"
    },
    {
      "constant": true,
      "inputs": [
        {
          "name": "timestamp",
          "type": "uint256"
        }
      ],
      "name": "getYear",
      "outputs": [
        {
          "name": "",
          "type": "uint256"
        }
      ],
      "payable": false,
      "stateMutability": "pure",
      "type": "function"
    },
    {
      "constant": true,
      "inputs": [
        {
          "name": "timestamp",
          "type": "uint256"
        }
      ],
      "name": "getMonth",
      "outputs": [
        {
          "name": "",
          "type": "uint256"
        }
      ],
      "payable": false,
      "stateMutability": "pure",
      "type": "function"
    },
    {
      "constant": true,
      "inputs": [
        {
          "name": "year",
          "type": "uint256"
        }
      ],
      "name": "leapYearsBefore",
      "outputs": [
        {
          "name": "",
          "type": "uint256"
        }
      ],
      "payable": false,
      "stateMutability": "pure",
      "type": "function"
    },
    {
      "constant": true,
      "inputs": [
        {
          "name": "year",
          "type": "uint256"
        }
      ],
      "name": "isLeapYear",
      "outputs": [
        {
          "name": "",
          "type": "bool"
        }
      ],
      "payable": false,
      "stateMutability": "pure",
      "type": "function"
    },
    {
      "constant": true,
      "inputs": [
        {
          "name": "month",
          "type": "uint256"
        },
        {
          "name": "year",
          "type": "uint256"
        }
      ],
      "name": "getDaysInMonth",
      "outputs": [
        {
          "name": "",
          "type": "uint256"
        }
      ],
      "payable": false,
      "stateMutability": "pure",
      "type": "function"
    },
    {
      "constant": true,
      "inputs": [],
      "name": "dso",
      "outputs": [
        {
          "name": "",
          "type": "address"
        }
      ],
      "payable": false,
      "stateMutability": "view",
      "type": "function"
    },
    {
      "constant": false,
      "inputs": [
        {
          "name": "newOwner",
          "type": "address"
        }
      ],
      "name": "transferOwnership",
      "outputs": [],
      "payable": false,
      "stateMutability": "nonpayable",
      "type": "function"
    },
    {
      "constant": true,
      "inputs": [
        {
          "name": "timestamp",
          "type": "uint256"
        }
      ],
      "name": "getMinute",
      "outputs": [
        {
          "name": "",
          "type": "uint256"
        }
      ],
      "payable": false,
      "stateMutability": "pure",
      "type": "function"
    },
    {
      "inputs": [
        {
          "name": "_dso",
          "type": "address"
        },
        {
          "name": "_token",
          "type": "address"
        }
      ],
      "payable": false,
      "stateMutability": "nonpayable",
      "type": "constructor"
    },
    {
      "anonymous": false,
      "inputs": [
        {
          "indexed": false,
          "name": "player",
          "type": "address"
        },
        {
          "indexed": false,
          "name": "startTime",
          "type": "uint256"
        },
        {
          "indexed": false,
          "name": "idx",
          "type": "uint256"
        }
      ],
      "name": "Opened",
      "type": "event"
    },
    {
      "anonymous": false,
      "inputs": [
        {
          "indexed": false,
          "name": "player",
          "type": "address"
        },
        {
          "indexed": false,
          "name": "startTime",
          "type": "uint256"
        },
        {
          "indexed": false,
          "name": "idx",
          "type": "uint256"
        }
      ],
      "name": "ConfirmedOpening",
      "type": "event"
    },
    {
      "anonymous": false,
      "inputs": [
        {
          "indexed": false,
          "name": "dso",
          "type": "address"
        },
        {
          "indexed": false,
          "name": "idx",
          "type": "uint256"
        }
      ],
      "name": "RefundedDSO",
      "type": "event"
    },
    {
      "anonymous": false,
      "inputs": [
        {
          "indexed": false,
          "name": "player",
          "type": "address"
        },
        {
          "indexed": false,
          "name": "startTime",
          "type": "uint256"
        },
        {
          "indexed": false,
          "name": "idx",
          "type": "uint256"
        },
        {
          "indexed": false,
          "name": "powerPeak",
          "type": "uint256"
        }
      ],
      "name": "Settled",
      "type": "event"
    },
    {
      "anonymous": false,
      "inputs": [
        {
          "indexed": false,
          "name": "player",
          "type": "address"
        },
        {
          "indexed": false,
          "name": "startTime",
          "type": "uint256"
        },
        {
          "indexed": false,
          "name": "idx",
          "type": "uint256"
        },
        {
          "indexed": false,
          "name": "powerPeak",
          "type": "uint256"
        }
      ],
      "name": "ConfirmedSettlement",
      "type": "event"
    },
    {
      "anonymous": false,
      "inputs": [],
      "name": "SuccessfulSettlement",
      "type": "event"
    },
    {
      "anonymous": false,
      "inputs": [
        {
          "indexed": false,
          "name": "powerPeakDSO",
          "type": "uint256"
        },
        {
          "indexed": false,
          "name": "powerPeakPlayer",
          "type": "uint256"
        }
      ],
      "name": "UnsuccessfulSettlement",
      "type": "event"
    },
    {
      "anonymous": false,
      "inputs": [
        {
          "indexed": false,
          "name": "tokensForDso",
          "type": "uint256"
        },
        {
          "indexed": false,
          "name": "tokensForPlayer",
          "type": "uint256"
        }
      ],
      "name": "Prize",
      "type": "event"
    },
    {
      "anonymous": false,
      "inputs": [
        {
          "indexed": false,
          "name": "tokensForDso",
          "type": "uint256"
        },
        {
          "indexed": false,
          "name": "tokensForPlayer",
          "type": "uint256"
        }
      ],
      "name": "Revenue",
      "type": "event"
    },
    {
      "anonymous": false,
      "inputs": [
        {
          "indexed": false,
          "name": "tokensForDso",
          "type": "uint256"
        },
        {
          "indexed": false,
          "name": "tokensForPlayer",
          "type": "uint256"
        }
      ],
      "name": "Penalty",
      "type": "event"
    },
    {
      "anonymous": false,
      "inputs": [
        {
          "indexed": false,
          "name": "tokensForDso",
          "type": "uint256"
        },
        {
          "indexed": false,
          "name": "tokensForPlayer",
          "type": "uint256"
        }
      ],
      "name": "Crash",
      "type": "event"
    },
    {
      "anonymous": false,
      "inputs": [
        {
          "indexed": false,
          "name": "marketResult",
          "type": "uint8"
        }
      ],
      "name": "Closed",
      "type": "event"
    },
    {
      "anonymous": false,
      "inputs": [
        {
          "indexed": false,
          "name": "player",
          "type": "address"
        },
        {
          "indexed": false,
          "name": "startTime",
          "type": "uint256"
        },
        {
          "indexed": false,
          "name": "idx",
          "type": "uint256"
        }
      ],
      "name": "RefereeIntervention",
      "type": "event"
    },
    {
      "anonymous": false,
      "inputs": [],
      "name": "PlayerCheated",
      "type": "event"
    },
    {
      "anonymous": false,
      "inputs": [],
      "name": "DSOCheated",
      "type": "event"
    },
    {
      "anonymous": false,
      "inputs": [],
      "name": "DSOAndPlayerCheated",
      "type": "event"
    },
    {
      "anonymous": false,
      "inputs": [
        {
          "indexed": false,
          "name": "burntTokens",
          "type": "uint256"
        }
      ],
      "name": "BurntTokens",
      "type": "event"
    },
    {
      "anonymous": false,
      "inputs": [
        {
          "indexed": false,
          "name": "marketResult",
          "type": "uint8"
        }
      ],
      "name": "ClosedAfterJudgement",
      "type": "event"
    },
    {
      "anonymous": false,
      "inputs": [
        {
          "indexed": true,
          "name": "previousOwner",
          "type": "address"
        },
        {
          "indexed": true,
          "name": "newOwner",
          "type": "address"
        }
      ],
      "name": "OwnershipTransferred",
      "type": "event"
    },
    {
      "constant": false,
      "inputs": [
        {
          "name": "_player",
          "type": "address"
        },
        {
          "name": "_startTime",
          "type": "uint256"
        },
        {
          "name": "_type",
          "type": "uint8"
        },
        {
          "name": "_referee",
          "type": "address"
        },
        {
          "name": "_maxLow",
          "type": "uint256"
        },
        {
          "name": "_maxUp",
          "type": "uint256"
        },
        {
          "name": "_revFactor",
          "type": "uint256"
        },
        {
          "name": "_penFactor",
          "type": "uint256"
        },
        {
          "name": "_stakedNGTs",
          "type": "uint256"
        },
        {
          "name": "_playerNGTs",
          "type": "uint256"
        },
        {
          "name": "_revPercReferee",
          "type": "uint256"
        }
      ],
      "name": "open",
      "outputs": [],
      "payable": false,
      "stateMutability": "nonpayable",
      "type": "function"
    },
    {
      "constant": false,
      "inputs": [
        {
          "name": "idx",
          "type": "uint256"
        },
        {
          "name": "stakedNGTs",
          "type": "uint256"
        }
      ],
      "name": "confirmOpening",
      "outputs": [],
      "payable": false,
      "stateMutability": "nonpayable",
      "type": "function"
    },
    {
      "constant": false,
      "inputs": [
        {
          "name": "idx",
          "type": "uint256"
        }
      ],
      "name": "refund",
      "outputs": [],
      "payable": false,
      "stateMutability": "nonpayable",
      "type": "function"
    },
    {
      "constant": false,
      "inputs": [
        {
          "name": "idx",
          "type": "uint256"
        },
        {
          "name": "powerPeak",
          "type": "uint256"
        }
      ],
      "name": "settle",
      "outputs": [],
      "payable": false,
      "stateMutability": "nonpayable",
      "type": "function"
    },
    {
      "constant": false,
      "inputs": [
        {
          "name": "idx",
          "type": "uint256"
        },
        {
          "name": "powerPeak",
          "type": "uint256"
        }
      ],
      "name": "confirmSettlement",
      "outputs": [],
      "payable": false,
      "stateMutability": "nonpayable",
      "type": "function"
    },
    {
      "constant": false,
      "inputs": [
        {
          "name": "idx",
          "type": "uint256"
        },
        {
          "name": "_powerPeak",
          "type": "uint256"
        }
      ],
      "name": "performRefereeDecision",
      "outputs": [],
      "payable": false,
      "stateMutability": "nonpayable",
      "type": "function"
    },
    {
      "constant": true,
      "inputs": [
        {
          "name": "_addr",
          "type": "address"
        },
        {
          "name": "_ts",
          "type": "uint256"
        },
        {
          "name": "_type",
          "type": "uint8"
        }
      ],
      "name": "calcIdx",
      "outputs": [
        {
          "name": "",
          "type": "uint256"
        }
      ],
      "payable": false,
      "stateMutability": "pure",
      "type": "function"
    },
    {
      "constant": true,
      "inputs": [
        {
          "name": "_idx",
          "type": "uint256"
        }
      ],
      "name": "getState",
      "outputs": [
        {
          "name": "",
          "type": "uint8"
        }
      ],
      "payable": false,
      "stateMutability": "view",
      "type": "function"
    },
    {
      "constant": true,
      "inputs": [
        {
          "name": "_idx",
          "type": "uint256"
        }
      ],
      "name": "getResult",
      "outputs": [
        {
          "name": "",
          "type": "uint8"
        }
      ],
      "payable": false,
      "stateMutability": "view",
      "type": "function"
    },
    {
      "constant": true,
      "inputs": [
        {
          "name": "_idx",
          "type": "uint256"
        }
      ],
      "name": "getPlayer",
      "outputs": [
        {
          "name": "",
          "type": "address"
        }
      ],
      "payable": false,
      "stateMutability": "view",
      "type": "function"
    },
    {
      "constant": true,
      "inputs": [
        {
          "name": "_idx",
          "type": "uint256"
        }
      ],
      "name": "getReferee",
      "outputs": [
        {
          "name": "",
          "type": "address"
        }
      ],
      "payable": false,
      "stateMutability": "view",
      "type": "function"
    },
    {
      "constant": true,
      "inputs": [
        {
          "name": "_idx",
          "type": "uint256"
        }
      ],
      "name": "getStartTime",
      "outputs": [
        {
          "name": "",
          "type": "uint256"
        }
      ],
      "payable": false,
      "stateMutability": "view",
      "type": "function"
    },
    {
      "constant": true,
      "inputs": [
        {
          "name": "_idx",
          "type": "uint256"
        }
      ],
      "name": "getEndTime",
      "outputs": [
        {
          "name": "",
          "type": "uint256"
        }
      ],
      "payable": false,
      "stateMutability": "view",
      "type": "function"
    },
    {
      "constant": true,
      "inputs": [
        {
          "name": "_idx",
          "type": "uint256"
        }
      ],
      "name": "getLowerMaximum",
      "outputs": [
        {
          "name": "",
          "type": "uint256"
        }
      ],
      "payable": false,
      "stateMutability": "view",
      "type": "function"
    },
    {
      "constant": true,
      "inputs": [
        {
          "name": "_idx",
          "type": "uint256"
        }
      ],
      "name": "getUpperMaximum",
      "outputs": [
        {
          "name": "",
          "type": "uint256"
        }
      ],
      "payable": false,
      "stateMutability": "view",
      "type": "function"
    },
    {
      "constant": true,
      "inputs": [
        {
          "name": "_idx",
          "type": "uint256"
        }
      ],
      "name": "getRevenueFactor",
      "outputs": [
        {
          "name": "",
          "type": "uint256"
        }
      ],
      "payable": false,
      "stateMutability": "view",
      "type": "function"
    },
    {
      "constant": true,
      "inputs": [
        {
          "name": "_idx",
          "type": "uint256"
        }
      ],
      "name": "getPenaltyFactor",
      "outputs": [
        {
          "name": "",
          "type": "uint256"
        }
      ],
      "payable": false,
      "stateMutability": "view",
      "type": "function"
    },
    {
      "constant": true,
      "inputs": [
        {
          "name": "_idx",
          "type": "uint256"
        }
      ],
      "name": "getDsoStake",
      "outputs": [
        {
          "name": "",
          "type": "uint256"
        }
      ],
      "payable": false,
      "stateMutability": "view",
      "type": "function"
    },
    {
      "constant": true,
      "inputs": [
        {
          "name": "_idx",
          "type": "uint256"
        }
      ],
      "name": "getPlayerStake",
      "outputs": [
        {
          "name": "",
          "type": "uint256"
        }
      ],
      "payable": false,
      "stateMutability": "view",
      "type": "function"
    },
    {
      "constant": true,
      "inputs": [
        {
          "name": "_idx",
          "type": "uint256"
        }
      ],
      "name": "getFlag",
      "outputs": [
        {
          "name": "",
          "type": "bool"
        }
      ],
      "payable": false,
      "stateMutability": "view",
      "type": "function"
    }
  ],
  "bytecode": "0x608060405234801561001057600080fd5b506040516040806127ce833981016040819052815160209092015160008054600160a060020a03191633178082559192600160a060020a0392909216917f8be0079c531659141344cd1fd0a4f28419497f9722a3daafe3b4186f6b6457e0908290a360028054600160a060020a03938416600160a060020a03199182161790915560018054929093169116179055612721806100ad6000396000f3006080604052600436106101ed5763ffffffff7c010000000000000000000000000000000000000000000000000000000060003504166322f8dae081146101f2578063278ecde1146102235780633e239e1a1461023d57806344c9af28146102675780634a583ec5146102a35780634ac1ad78146102be5780634fe06988146102d65780636052a22b146102f457806365c72840146103185780636a7f0c69146103305780636c24d0e6146103515780636f2cd5ad14610378578063715018a6146103c2578063796c5b08146103d7578063805484b7146103ef57806383b572d1146104075780638aa001fc1461041f5780638da5cb5b146104375780638f32d59b1461044c5780639067b6771461047557806392d663131461048d57806395fdc999146104a5578063995e4339146104bd5780639a9c29f6146104e55780639e11b66c14610500578063a0c022af14610518578063a324ad2414610542578063a6e915b61461055a578063b199993714610575578063b8d16dbc1461058d578063bc2be1be146105a5578063be9afac7146105bd578063cb14f572146105d8578063d7744b9f146105ed578063dadcb23a14610605578063dbb346671461061d578063e55ae4e814610635578063ee1e84f61461064d578063f2fde38b14610668578063fa93f88314610689575b600080fd5b3480156101fe57600080fd5b506102076106a1565b60408051600160a060020a039092168252519081900360200190f35b34801561022f57600080fd5b5061023b6004356106b0565b005b34801561024957600080fd5b5061025560043561083c565b60408051918252519081900360200190f35b34801561027357600080fd5b5061027f600435610859565b6040518082600881111561028f57fe5b60ff16815260200191505060405180910390f35b3480156102af57600080fd5b5061023b600435602435610871565b3480156102ca57600080fd5b50610255600435610a10565b3480156102e257600080fd5b50610255600435602435604435610a22565b34801561030057600080fd5b50610255600435602435604435606435608435610a3c565b34801561032457600080fd5b50610255600435610a57565b34801561033c57600080fd5b50610255600435602435604435606435610a6c565b34801561035d57600080fd5b5061025560043560243560443560643560843560a435610a86565b34801561038457600080fd5b5061023b600160a060020a036004358116906024359060ff60443516906064351660843560a43560c43560e435610104356101243561014435610ba2565b3480156103ce57600080fd5b5061023b61104b565b3480156103e357600080fd5b506102556004356110b5565b3480156103fb57600080fd5b506102556004356110ca565b34801561041357600080fd5b506102556004356110df565b34801561042b57600080fd5b506102556004356110f4565b34801561044357600080fd5b506102076110fe565b34801561045857600080fd5b5061046161110d565b604080519115158252519081900360200190f35b34801561048157600080fd5b5061025560043561111e565b34801561049957600080fd5b50610255600435611134565b3480156104b157600080fd5b506104616004356111be565b3480156104c957600080fd5b506104d56004356111d3565b6040518082600981111561028f57fe5b3480156104f157600080fd5b5061023b6004356024356111f0565b34801561050c57600080fd5b506102556004356112f6565b34801561052457600080fd5b50610255600160a060020a036004351660243560ff6044351661130b565b34801561054e57600080fd5b506102556004356113f1565b34801561056657600080fd5b5061023b600435602435611406565b34801561058157600080fd5b50610255600435611686565b34801561059957600080fd5b506104616004356116a1565b3480156105b157600080fd5b506102556004356116df565b3480156105c957600080fd5b506102556004356024356116f4565b3480156105e457600080fd5b5061020761179b565b3480156105f957600080fd5b506102076004356117aa565b34801561061157600080fd5b506102556004356117c8565b34801561062957600080fd5b506102556004356117dd565b34801561064157600080fd5b506102076004356117f2565b34801561065957600080fd5b5061023b60043560243561180d565b34801561067457600080fd5b5061023b600160a060020a0360043516611d0d565b34801561069557600080fd5b50610255600435611d2c565b600154600160a060020a031681565b600254600160a060020a031633146106c757600080fd5b60008181526004602052604090205460ff1615156001146106e757600080fd5b600260008281526003602052604090206010015460ff16600881111561070957fe5b1461071357600080fd5b600081815260036020526040902060020154421161073057600080fd5b600154600254600083815260036020908152604080832060090154815160e060020a63a9059cbb028152600160a060020a03958616600482015260248101919091529051939094169363a9059cbb9360448083019491928390030190829087803b15801561079d57600080fd5b505af11580156107b1573d6000803e3d6000fd5b505050506040513d60208110156107c757600080fd5b50506000818152600360209081526040918290206010018054600861ff00199091166102001760ff19161790556002548251600160a060020a03909116815290810183905281517fb4422e9864da3a48df6810b6e9323b4a9427b846ae7dcea0e87c4bcd8b88ac88929181900390910190a150565b60006018603c8084045b0481151561085057fe5b0690505b919050565b60009081526003602052604090206010015460ff1690565b600082815260036020526040902054600160a060020a0316331461089457600080fd5b60008281526004602052604090205460ff1615156001146108b457600080fd5b600460008381526003602052604090206010015460ff1660088111156108d657fe5b146108e057600080fd5b600082815260036020908152604091829020600e810184905580546002909101548351600160a060020a039092168252918101919091528082018490526060810183905290517f38588dccde0449f4799cf1303b5daed1e5d890c381ba71306d00581d9efb5ffb9181900360800190a16000828152600360205260409020600e810154600d9091015414156109a65761097882611d37565b6040517febcb560de0775ec7103e362a2b32b3e5bc327f64ed6eabd2b526161a918b0ae790600090a1610a0c565b60008281526003602090815260409182902060108101805460ff19166005179055600d810154600e9091015483519182529181019190915281517f58c4a7fd226e8edfba8d6e3d0afb0a6049e6ce5324e703b082a562f2388abb17929181900390910190a15b5050565b60006007600462015180840401610850565b6000610a348484846000806000610a86565b949350505050565b6000610a4d86868686866000610a86565b9695505050505050565b6000610a62826120d0565b6040015192915050565b6000610a7d85858585600080610a86565b95945050505050565b600080610a91612697565b6107b291505b88821015610ad057610aa8826116a1565b15610abb576301e2850083019250610ac5565b6301e13380830192505b600190910190610a97565b601f8152610add896116a1565b15610aee57601d6020820152610af6565b601c60208201525b601f60408201819052601e606083018190526080830182905260a0830181905260c0830182905260e0830182905261010083018190526101208301829052610140830152610160820152600191505b87821015610b7757806000198301600c8110610b5d57fe5b602002015162015180029290920191600190910190610b45565b505060001994909401620151800293909301610e109290920291909101603c91909102010192915050565b6000610baf8c8c8c61130b565b600254909150600160a060020a03163314610bc957600080fd5b60008181526004602052604090205460ff1615610be557600080fd5b428b11610bf157600080fd5b610bfb8b8b6121f4565b1515610c0657600080fd5b600160a060020a0389161515610c1b57600080fd5b600254600160a060020a038a811691161415610c3657600080fd5b600160a060020a03898116908d161415610c4f57600080fd5b868810610c5b57600080fd5b610c6787898887612294565b1515600114610c7557600080fd5b600154600254604080517fdd62ed3e000000000000000000000000000000000000000000000000000000008152600160a060020a0392831660048201523060248201529051919092169163dd62ed3e9160448083019260209291908290030181600087803b158015610ce657600080fd5b505af1158015610cfa573d6000803e3d6000fd5b505050506040513d6020811015610d1057600080fd5b5051841115610d1e57600080fd5b60008181526003602052604090206002018b9055610d3c8b8b6122c6565b60008281526003602081905260409091209081019190915560040180548b919060ff19166001836002811115610d6e57fe5b0217905550886003600083815260200190815260200160002060010160006101000a815481600160a060020a030219169083600160a060020a031602179055508b6003600083815260200190815260200160002060000160006101000a815481600160a060020a030219169083600160a060020a031602179055508760036000838152602001908152602001600020600501819055508660036000838152602001908152602001600020600601819055508560036000838152602001908152602001600020600701819055508460036000838152602001908152602001600020600801819055508360036000838152602001908152602001600020600901819055508260036000838152602001908152602001600020600a0181905550600060036000838152602001908152602001600020600b0181905550600060036000838152602001908152602001600020600c01819055508160036000838152602001908152602001600020600f018190555060026003600083815260200190815260200160002060100160006101000a81548160ff02191690836008811115610f1157fe5b0217905550600081815260036020818152604080842060108101805461ff0019166101001790556004808452828620805460ff191660019081179091555460025495855260099092015483517f23b872dd000000000000000000000000000000000000000000000000000000008152600160a060020a0396871692810192909252306024830152604482015291519316936323b872dd93606480840194939192918390030190829087803b158015610fc857600080fd5b505af1158015610fdc573d6000803e3d6000fd5b505050506040513d6020811015610ff257600080fd5b505060408051600160a060020a038e168152602081018d905280820183905290517f0e00eb3434eeed137478dadba5581f87fdda6f16b438d9d1b616b24093bfbb429181900360600190a1505050505050505050505050565b61105361110d565b151561105e57600080fd5b60008054604051600160a060020a03909116907f8be0079c531659141344cd1fd0a4f28419497f9722a3daafe3b4186f6b6457e0908390a36000805473ffffffffffffffffffffffffffffffffffffffff19169055565b60009081526003602052604090206008015490565b60009081526003602052604090206006015490565b6000908152600360205260409020600a015490565b6000603c82610850565b600054600160a060020a031690565b600054600160a060020a0316331490565b6000908152600360208190526040909120015490565b60008080806301e1338085046107b20191506111516107b2611686565b61115a83611686565b039050806301e285000283019250806107b28303036301e1338002830192505b848311156111b65761118e600183036116a1565b156111a1576301e28500830392506111ab565b6301e13380830392505b60018203915061117a565b509392505050565b60009081526004602052604090205460ff1690565b600090815260036020526040902060100154610100900460ff1690565b600254600160a060020a0316331461120757600080fd5b60008281526004602052604090205460ff16151560011461122757600080fd5b600360008381526003602052604090206010015460ff16600881111561124957fe5b1461125357600080fd5b6000828152600360208190526040909120015442101561127257600080fd5b600082815260036020908152604091829020600d810184905560108101805460ff1916600417905580546002909101548351600160a060020a039092168252918101919091528082018490526060810183905290517f6f072ff41a58c73c1f7253e82b3e50e1083b438aa76a962283c334bb6797d355916080908290030190a15050565b60009081526003602052604090206005015490565b60008383836040516020018084600160a060020a0316600160a060020a03166c0100000000000000000000000002815260140183815260200182600281111561135057fe5b60ff167f010000000000000000000000000000000000000000000000000000000000000002815260010193505050506040516020818303038152906040526040518082805190602001908083835b602083106113bd5780518252601f19909201916020918201910161139e565b5181516020939093036101000a60001901801990911692169190911790526040519201829003909120979650505050505050565b60006113fc826120d0565b6020015192915050565b600082815260036020526040902054600160a060020a0316331461142957600080fd5b60008281526004602052604090205460ff16151560011461144957600080fd5b6000828152600360205260409020600a0154811461146657600080fd5b600260008381526003602052604090206010015460ff16600881111561148857fe5b1461149257600080fd5b60015460008381526003602090815260408083205481517fdd62ed3e000000000000000000000000000000000000000000000000000000008152600160a060020a039182166004820152306024820152915194169363dd62ed3e93604480840194938390030190829087803b15801561150a57600080fd5b505af115801561151e573d6000803e3d6000fd5b505050506040513d602081101561153457600080fd5b505181111561154257600080fd5b60008281526003602052604090206002015442111561156057600080fd5b60015460008381526003602090815260408083208054600a9091015482517f23b872dd000000000000000000000000000000000000000000000000000000008152600160a060020a039283166004820152306024820152604481019190915291519416936323b872dd93606480840194938390030190829087803b1580156115e757600080fd5b505af11580156115fb573d6000803e3d6000fd5b505050506040513d602081101561161157600080fd5b505060008281526003602081815260409283902060108101805460ff191690931790925581546002909201548351600160a060020a0390931683529082015280820184905290517ff459461dee84cd924a71936241b498c6f4f4ef408685363ec9d761ad4fc931299181900360600190a15050565b60001901600061019082046064830460048404030192915050565b600060048206156116b457506000610854565b60648206156116c557506001610854565b6101908206156116d757506000610854565b506001919050565b60009081526003602052604090206002015490565b600082600114806117055750826003145b806117105750826005145b8061171b5750826007145b806117265750826008145b80611731575082600a145b8061173c575082600c145b156117495750601f611795565b82600414806117585750826006145b806117635750826009145b8061176e575082600b145b1561177b5750601e611795565b611784826116a1565b156117915750601d611795565b50601c5b92915050565b600254600160a060020a031681565b600090815260036020526040902060010154600160a060020a031690565b60009081526003602052604090206007015490565b60009081526003602052604090206009015490565b600090815260036020526040902054600160a060020a031690565b60008281526003602052604081206001015481908190600160a060020a0316331461183757600080fd5b600560008681526003602052604090206010015460ff16600881111561185957fe5b1461186357600080fd5b6000858152600360205260409020600a81015460099091015461188b9163ffffffff61238916565b6000868152600360205260409020600f01549093506118c3906118b69060649063ffffffff6123a616565b849063ffffffff6123a616565b91506118d5838363ffffffff6123c916565b60008681526003602090815260409182902080546002909101548351600160a060020a0390921682529181019190915280820188905290519192507f392f657705b9606466a901c634faa6b0e79af5e7fb8e2b763927034058156cbd919081900360600190a16000858152600360205260409020600d0154841415611a26576000858152600360209081526040808320601001805461ff001916610800179055600154600254825160e060020a63a9059cbb028152600160a060020a03918216600482015260248101879052925191169363a9059cbb93604480850194919392918390030190829087803b1580156119cc57600080fd5b505af11580156119e0573d6000803e3d6000fd5b505050506040513d60208110156119f657600080fd5b50506040517f472e2393df597d3110ae096cb0affc795abec1d071054cc38d847069abfdad2a90600090a1611c04565b6000858152600360205260409020600e0154841415611b1157600085815260036020908152604080832060108101805461ff0019166107001790556001549054825160e060020a63a9059cbb028152600160a060020a03918216600482015260248101879052925191169363a9059cbb93604480850194919392918390030190829087803b158015611ab757600080fd5b505af1158015611acb573d6000803e3d6000fd5b505050506040513d6020811015611ae157600080fd5b50506040517fe3ceb394561de52341d4a80e843b8c71fd9fe8c1f6211ade72a27ee3ec7bd60f90600090a1611c04565b600085815260036020526040808220601001805461ff00191661090017905560015481517f42966c68000000000000000000000000000000000000000000000000000000008152600481018590529151600160a060020a03909116926342966c68926024808201939182900301818387803b158015611b8f57600080fd5b505af1158015611ba3573d6000803e3d6000fd5b50506040517f6d1b57e117115db822a9ce91dddfa2a539c4619d55228ee8f35bef8c4140ce2e925060009150a16040805182815290517f0c82209729ff660fa3b00f15bdb9b29b7a2cb65045cae89fd628796c5a6483a49181900360200190a15b60018054600087815260036020908152604080832090940154845160e060020a63a9059cbb028152600160a060020a03918216600482015260248101889052945193169363a9059cbb9360448083019491928390030190829087803b158015611c6c57600080fd5b505af1158015611c80573d6000803e3d6000fd5b505050506040513d6020811015611c9657600080fd5b505060008581526003602052604090819020601001805460ff19166007179081905590517f9e56b6af698f95d689541b077c89deb562087d99210509e8f4fe11910ac817029160ff610100909104169080826009811115611cf357fe5b60ff16815260200191505060405180910390a15050505050565b611d1561110d565b1515611d2057600080fd5b611d29816123e0565b50565b6000603c8083610846565b6000818152600360205260408120600d810154600590910154909190819081908411611deb576000858152600360205260408120600a810154600990910154919450611d89919063ffffffff61238916565b600086815260036020908152604091829020601001805461ff001916610300179055815186815290810183905281519294507f84b55a87ae61f998fb034c3393da4f6f2e5eca7340f11c89e5c8e827afcea86f929081900390910190a16120be565b60008581526003602052604090206005015484118015611e1c57506000858152600360205260409020600601548411155b15611f1c57600085815260036020526040902060050154611e4490859063ffffffff6123c916565b600086815260036020526040902060070154909150611e6a90829063ffffffff61245d16565b600086815260036020526040902060090154909350611e8f908463ffffffff6123c916565b6000868152600360205260409020600a0154909250611eb590839063ffffffff61238916565b6000868152600360205260409020601001805491935060049161ff001916610100830217905550604080518481526020810184905281517fa9b6969357a18fa922cb362b2428d5f0dc575c92e5fac14559e63497ea049435929181900390910190a16120be565b600085815260036020526040902060060154611f3f90859063ffffffff6123c916565b600086815260036020526040902060080154909150611f6590829063ffffffff61245d16565b6000868152600360205260409020600a01549093508310612013576000858152600360205260408120600a810154600990910154919350611fac919063ffffffff61238916565b6000868152600360205260409020601001805491945060069161ff001916610100830217905550604080518481526020810184905281517feaacd3d4ee45b24288f5b29a1630c89a05ecba6583aae3c092f12d0365faa305929181900390910190a16120be565b6000858152600360205260409020600a0154612035908463ffffffff6123c916565b60008681526003602052604090206009015490925061205b90849063ffffffff61238916565b6000868152600360205260409020601001805491945060059161ff001916610100830217905550604080518481526020810184905281517f28c619c49605c492d23419d5ffca91159426d25afdf8eec9d22f690c4350a3c5929181900390910190a15b6120c985848461248b565b5050505050565b6120d86126b7565b60008080806120e686611134565b85526120f36107b2611686565b85516120fe90611686565b039250826301e285000284019350826107b2866000015103036301e133800284019350600191505b600c82116121685761213c8286600001516116f4565b620151800290508584820111156121595760208501829052612168565b92830192600190910190612126565b600191505b61217f856020015186600001516116f4565b82116121b25785846201518001111561219e57604085018290526121b2565b62015180939093019260019091019061216d565b6121bb8661083c565b60608601526121c986611d2c565b60808601526121d7866110f4565b60a08601526121e586610a10565b60c08601525092949350505050565b60008082600281111561220357fe5b14156122525761221283610a57565b600114801561222757506122258361083c565b155b8015612239575061223783611d2c565b155b801561224b5750612249836110f4565b155b9050611795565b600182600281111561226057fe5b141561226f576122258361083c565b600282600281111561227d57fe5b141561228c5761223783611d2c565b506000611795565b6000806122a7868663ffffffff6123c916565b90506122b9818563ffffffff61245d16565b9290921495945050505050565b6000808260028111156122d557fe5b14156123145761224b6122e784611134565b6122f0856113f1565b61230a6122fc876113f1565b61230588611134565b6116f4565b6017603b80610a86565b600182600281111561232257fe5b14156123465761224b61233484611134565b61233d856113f1565b61230a86610a57565b600282600281111561235457fe5b141561228c5761224b61236684611134565b61236f856113f1565b61237886610a57565b6123818761083c565b603b80610a86565b60008282018381101561239b57600080fd5b8091505b5092915050565b6000808083116123b557600080fd5b82848115156123c057fe5b04949350505050565b600080838311156123d957600080fd5b5050900390565b600160a060020a03811615156123f557600080fd5b60008054604051600160a060020a03808516939216917f8be0079c531659141344cd1fd0a4f28419497f9722a3daafe3b4186f6b6457e091a36000805473ffffffffffffffffffffffffffffffffffffffff1916600160a060020a0392909216919091179055565b600080831515612470576000915061239f565b5082820282848281151561248057fe5b041461239b57600080fd5b6000838152600360208190526040909120600b8101849055600c810183905560100154610100900460ff1660098111156124c157fe5b14612560576001546002546000858152600360209081526040808320600b0154815160e060020a63a9059cbb028152600160a060020a03958616600482015260248101919091529051939094169363a9059cbb9360448083019491928390030190829087803b15801561253357600080fd5b505af1158015612547573d6000803e3d6000fd5b505050506040513d602081101561255d57600080fd5b50505b6006600084815260036020526040902060100154610100900460ff16600981111561258757fe5b146126245760015460008481526003602090815260408083208054600c90910154825160e060020a63a9059cbb028152600160a060020a0392831660048201526024810191909152915194169363a9059cbb93604480840194938390030190829087803b1580156125f757600080fd5b505af115801561260b573d6000803e3d6000fd5b505050506040513d602081101561262157600080fd5b50505b60008381526003602052604090819020601001805460ff19166006179081905590517fe0449c44a78638ebb7df243f5f79ca5e160e2a1ad65fd2c39fcbfcb866aa23cc9160ff61010090910416908082600981111561267f57fe5b60ff16815260200191505060405180910390a1505050565b61018060405190810160405280600c906020820280388339509192915050565b60e0604051908101604052806000815260200160008152602001600081526020016000815260200160008152602001600081526020016000815250905600a165627a7a7230582064600f9f341bad2f001b38a2de9231001d1f50e598aa2ee7a2f419dbc44f29170029",
  "source": "pragma solidity ^0.4.23;\n\nimport \"../node_modules/openzeppelin-solidity/contracts/ownership/Ownable.sol\";\nimport \"../node_modules/openzeppelin-solidity/contracts/math/SafeMath.sol\";\n\nimport \"./DateTime.sol\";\nimport \"./NGT.sol\";\n\n/// @title A manager to handle energy markets\ncontract MarketsManager is Ownable, DateTime {\n    using SafeMath for uint;\n\n    // Enum definitions\n\n    // Type of the market\n    enum MarketType {\n                        Monthly,\n                        Daily,\n                        Hourly\n                    }\n\n    // State of the market\n    enum MarketState {\n                        None,\n                        NotRunning,             // Market not running\n                        WaitingConfirmToStart,  // Waiting for player confirm to start\n                        Running,                // Market running\n                        WaitingConfirmToEnd,    // Waiting for player confirm to end the market and assign the tokens\n                        WaitingForTheReferee,   // Waiting for the referee decision\n                        Closed,                 // Market closed\n                        ClosedAfterJudgement,   // Market closed after referee judgement\n                        ClosedNotPlayed         // Market closed because not played by the player\n                     }\n\n    // Result of the market\n    enum MarketResult {\n                        None,\n                        NotDecided,         // The market is not ended\n                        NotPlayed,          // The market is not played by the player\n                        Prize,              // The player takes all the NGTs staked by the DSO\n                        Revenue,            // The player takes a part of the NGTs staked by the DSO\n                        Penalty,            // The DSO takes a part of the NGTs staked by the player\n                        Crash,              // The DSO takes all the NGTs staked by the player\n                        DSOCheating,        // The referee assigns the NGT staked by the player to the DSO\n                        PlayerCheating,     // The referee assigns the NGT staked by the DSO to the player\n                        Cheaters            // The referee decides that both DSO and the player will be refunded\n                      }\n\n    // Struct data\n\n    // Market data\n    struct MarketData {\n        // Address of the player\n        address player;\n\n        // Address of a trusted referee, which decides the market if dso and player do not agree\n        address referee;\n\n        // Starting time of the market (timestamp)\n        uint startTime;\n\n        // Ending time of the market (timestamp)\n        uint endTime;\n\n        // Market type\n        MarketType marketType;\n\n        // Lower maximum power threshold (W)\n        uint maxPowerLower;\n\n        // Upper maximum power threshold (W)\n        uint maxPowerUpper;\n\n        // Revenue factor for the player (max_power_lower < max(P) < max_power_upper) (NGT/kW)\n        uint revenueFactor;\n\n        // Penalty factor for the player (max(P) > max_power_upper) (NGT/kW)\n        uint penaltyFactor;\n\n        // Amount staked by the DSO\n        uint dsoStaking;\n\n        // Amount staked by the player\n        uint playerStaking;\n\n        // Token released to the DSO after the market ending\n        uint tknReleasedToDso;\n\n        // Token released to the player after the market ending\n        uint tknReleasedToPlayer;\n\n        // Power peak declared by the DSO\n        uint powerPeakDeclaredByDso;\n\n        // Power peak declared by the player\n        uint powerPeakDeclaredByPlayer;\n\n        // Revenue token for the referee\n        uint revPercReferee;\n\n        // State of the market\n        MarketState state;\n\n        // Result of the market\n        MarketResult result;\n    }\n\n    // Variables declaration\n\n    /// Nemogrid token (NGT) used in the markets\n    NGT public ngt;\n\n    /// DSO related to the markets\n    address public dso;\n\n    /// Mapping related to markets data\n    mapping (uint => MarketData) marketsData;\n\n    /// Mapping related to markets existence\n    mapping (uint => bool) marketsFlag;\n\n    // Events\n\n    /// Market opened by DSO\n    /// @param player player address\n    /// @param startTime timestamp of the market starting time\n    /// @param idx market identifier\n    event Opened(address player, uint startTime, uint idx);\n\n    /// Market opening confirmed by the player\n    /// @param player player address\n    /// @param startTime timestamp of the market starting time\n    /// @param idx market identifier\n    event ConfirmedOpening(address player, uint startTime, uint idx);\n\n    /// DSO has been refunded\n    /// @param dso dso address\n    /// @param idx market identifier\n    event RefundedDSO(address dso, uint idx);\n\n    /// Market settled by DSO\n    /// @param player player address\n    /// @param startTime timestamp of the market starting time\n    /// @param idx market identifier\n    /// @param powerPeak maximum power consumed by player during the market\n    event Settled(address player, uint startTime, uint idx, uint powerPeak);\n\n    /// Market settlement confirmed by player\n    /// @param player player address\n    /// @param startTime timestamp of the market starting time\n    /// @param idx market identifier\n    /// @param powerPeak maximum power consumed by player during the market\n    event ConfirmedSettlement(address player, uint startTime, uint idx, uint powerPeak);\n\n    /// Successful settlement, player and DSO agree on the declared power peaks\n    event SuccessfulSettlement();\n\n    /// Unsuccessful settlement, player and DSO do not agree on the declared power peaks\n    /// @param powerPeakDSO maximum power declared by dso\n    /// @param powerPeakPlayer maximum power declared by player\n    event UnsuccessfulSettlement(uint powerPeakDSO, uint powerPeakPlayer);\n\n    /// Market result is Prize\n    /// @param tokensForDso NGTs amount for the DSO\n    /// @param tokensForPlayer NGTs amount for the player\n    event Prize(uint tokensForDso, uint tokensForPlayer);\n\n    /// Market result is Revenue\n    /// @param tokensForDso NGTs amount for the DSO\n    /// @param tokensForPlayer NGTs amount for the player\n    event Revenue(uint tokensForDso, uint tokensForPlayer);\n\n    /// Market result is Penalty\n    /// @param tokensForDso NGTs amount for the DSO\n    /// @param tokensForPlayer NGTs amount for the player\n    event Penalty(uint tokensForDso, uint tokensForPlayer);\n\n    /// Market result is Crash\n    /// @param tokensForDso NGTs amount for the DSO\n    /// @param tokensForPlayer NGTs amount for the player\n    event Crash(uint tokensForDso, uint tokensForPlayer);\n\n    /// Market has been closed\n    /// @param marketResult market final result\n    event Closed(MarketResult marketResult);\n\n    /// Intervention of the referee to decide the market\n    /// @param player player address\n    /// @param startTime timestamp of the market starting time\n    /// @param idx market identifier\n    event RefereeIntervention(address player, uint startTime, uint idx);\n\n    /// Player cheated\n    event PlayerCheated();\n\n    /// DSO cheated\n    event DSOCheated();\n\n    /// Both DSO and player cheated\n    event DSOAndPlayerCheated();\n\n    /// Burnt NGTs tokens for the cheatings\n    /// @param burntTokens burnt tokens\n    event BurntTokens(uint burntTokens);\n\n    /// Market closed after judge intervention\n    /// @param marketResult market final result\n    event ClosedAfterJudgement(MarketResult marketResult);\n\n    // Functions\n\n    /// Constructor\n    /// @param _dso DSO wallet\n    /// @param _token NGT token address\n    constructor(address _dso, address _token) public {\n        dso = _dso;\n        ngt = NGT(_token);\n    }\n\n    /// Open a new market defined by the couple (player, startTime)\n    /// @param _player player wallet\n    /// @param _startTime initial timestamp of the market\n    /// @param _type market type (0: monthly, 1: daily, 2: hourly)\n    /// @param _referee referee wallet\n    /// @param _maxLow lower limit of the maximum power consumed by player\n    /// @param _maxUp upper limit of the maximum power consumed by player\n    /// @param _revFactor revenue factor [NGT/kW]\n    /// @param _penFactor penalty factor [NGT/kW]\n    /// @param _stakedNGTs DSO staking of NGTs token\n    /// @param _playerNGTs NGT amount that player will have to stake in order to successfully confirm the opening\n    /// @param _revPercReferee referee revenue percentage\n    function open(address _player,\n                  uint _startTime,\n                  MarketType _type,\n                  address _referee,\n                  uint _maxLow,\n                  uint _maxUp,\n                  uint _revFactor,\n                  uint _penFactor,\n                  uint _stakedNGTs,\n                  uint _playerNGTs,\n                  uint _revPercReferee) public {\n\n        // create the idx hashing player, startTime and market type\n        uint idx = calcIdx(_player, _startTime, _type);\n\n        // only the dso is allowed to open a market\n        require(msg.sender == dso);\n\n        // check the market existence\n        require(marketsFlag[idx] == false);\n\n        // check the startTime timestamp\n        require(now < _startTime);\n        require(_checkStartTime(_startTime, _type));\n\n        // check the referee address\n        require(_referee != address(0));\n        require(_referee != dso);\n        require(_referee != _player);\n\n        // check the maximum limits\n        require(_maxLow < _maxUp);\n\n        // check the revenue factor\n        require(_checkRevenueFactor(_maxUp, _maxLow, _revFactor, _stakedNGTs) == true);\n\n        // check the dso tokens allowance\n        require(_stakedNGTs <= ngt.allowance(dso, address(this)));\n\n        // The market can try to start: its data are saved in the mapping\n        marketsData[idx].startTime = _startTime;\n        marketsData[idx].endTime = _calcEndTime(_startTime, _type);\n        marketsData[idx].marketType = _type;\n        marketsData[idx].referee = _referee;\n        marketsData[idx].player = _player;\n        marketsData[idx].maxPowerLower = _maxLow;\n        marketsData[idx].maxPowerUpper = _maxUp;\n        marketsData[idx].revenueFactor = _revFactor;\n        marketsData[idx].penaltyFactor = _penFactor;\n        marketsData[idx].dsoStaking = _stakedNGTs;\n        marketsData[idx].playerStaking = _playerNGTs;\n        marketsData[idx].tknReleasedToDso = 0;\n        marketsData[idx].tknReleasedToPlayer = 0;\n        marketsData[idx].revPercReferee = _revPercReferee;\n        marketsData[idx].state = MarketState.WaitingConfirmToStart;\n        marketsData[idx].result = MarketResult.NotDecided;\n        marketsFlag[idx] = true;\n\n        // DSO staking: allowed tokens are transferred from dso wallet to this smart contract\n        ngt.transferFrom(dso, address(this), marketsData[idx].dsoStaking);\n\n        emit Opened(_player, _startTime, idx);\n    }\n\n    /// Confirm to play the market opening, performed by the player\n    /// @param idx market identifier\n    /// @param stakedNGTs DSO staking of NGTs token\n    function confirmOpening(uint idx, uint stakedNGTs) public {\n\n        // check if the player is the sender\n        require(msg.sender == marketsData[idx].player);\n\n        // check if the market exists\n        require(marketsFlag[idx] == true);\n\n        // check if the NGTs amount declared by dso that has to be staked by the player is correct\n        require(marketsData[idx].playerStaking == stakedNGTs);\n\n        // check if the market is waiting for the player starting confirm\n        require(marketsData[idx].state == MarketState.WaitingConfirmToStart);\n\n        // check the player tokens allowance\n        require(stakedNGTs <= ngt.allowance(marketsData[idx].player, address(this)));\n\n        // check if it is not too late to confirm\n        require(now <= marketsData[idx].startTime);\n\n        // Player staking: allowed tokens are transferred from player wallet to this smart contract\n        ngt.transferFrom(marketsData[idx].player, address(this), marketsData[idx].playerStaking);\n\n        // The market is allowed to start\n        marketsData[idx].state = MarketState.Running;\n\n        emit ConfirmedOpening(marketsData[idx].player, marketsData[idx].startTime, idx);\n    }\n\n    /// Refund requested by the DSO (i.e. the player has not confirmed the market opening)\n    /// @param idx market identifier\n    function refund(uint idx) public {\n        // only the DSO is allowed to request a refund\n        require(msg.sender == dso);\n\n        // check if the market exists\n        require(marketsFlag[idx] == true);\n\n        // the market has to be in WaitingConfirmToStart state\n        require(marketsData[idx].state == MarketState.WaitingConfirmToStart);\n\n        // check if the market startTime is passed\n        require(marketsData[idx].startTime < now);\n\n        // refund the DSO staking\n        ngt.transfer(dso, marketsData[idx].dsoStaking);\n\n        // Set the market result\n        marketsData[idx].result = MarketResult.NotPlayed;\n\n        // Set the market state\n        marketsData[idx].state = MarketState.ClosedNotPlayed;\n\n        emit RefundedDSO(dso, idx);\n    }\n\n    /// Settle the market, performed by dso\n    /// @param idx market identifier\n    /// @param powerPeak maximum power consumed by the player during the market\n    function settle(uint idx, uint powerPeak) public {\n\n        // check if the dso is the sender\n        require(msg.sender == dso);\n\n        // check if the market exists\n        require(marketsFlag[idx] == true);\n\n        // check if the market is running\n        require(marketsData[idx].state == MarketState.Running);\n\n        // check if the market period is already ended\n        require(now >= marketsData[idx].endTime);\n\n        marketsData[idx].powerPeakDeclaredByDso = powerPeak;\n        marketsData[idx].state = MarketState.WaitingConfirmToEnd;\n\n        emit Settled(marketsData[idx].player, marketsData[idx].startTime, idx, powerPeak);\n    }\n\n    /// Confirm the market settlement, performed by the player\n    /// @param idx market identifier\n    /// @param powerPeak maximum power consumed by the player during the market\n    function confirmSettlement(uint idx, uint powerPeak) public {\n\n        // check if the player is the sender\n        require(msg.sender == marketsData[idx].player);\n\n        // check if the market exists\n        require(marketsFlag[idx] == true);\n\n        // check if the market is waiting for the player ending confirm\n        require(marketsData[idx].state == MarketState.WaitingConfirmToEnd);\n\n        marketsData[idx].powerPeakDeclaredByPlayer = powerPeak;\n\n        emit ConfirmedSettlement(marketsData[idx].player, marketsData[idx].startTime, idx, powerPeak);\n\n        // check if the two peak declarations (DSO and player) are equal\n        if(marketsData[idx].powerPeakDeclaredByDso == marketsData[idx].powerPeakDeclaredByPlayer) {\n\n            // Finish the market sending the tokens to DSO and player according to the measured peak\n            _decideMarket(idx);\n\n            emit SuccessfulSettlement();\n        }\n        else {\n            // The referee decision is requested\n            marketsData[idx].state = MarketState.WaitingForTheReferee;\n\n            emit UnsuccessfulSettlement(marketsData[idx].powerPeakDeclaredByDso, marketsData[idx].powerPeakDeclaredByPlayer);\n        }\n    }\n\n    /// Decide the market final result\n    /// @param idx market identifier\n    function _decideMarket(uint idx) private {\n        uint peak = marketsData[idx].powerPeakDeclaredByDso;\n        uint tokensForDso;\n        uint tokensForPlayer;\n        uint peakDiff;\n\n        // measured peak < lowerMax => PRIZE: the player takes all the DSO staking\n        if(peak <= marketsData[idx].maxPowerLower) {\n            tokensForDso = 0;\n            tokensForPlayer = marketsData[idx].dsoStaking.add(marketsData[idx].playerStaking);\n\n            // Set the market result as a player prize\n            marketsData[idx].result = MarketResult.Prize;\n\n            emit Prize(tokensForDso, tokensForPlayer);\n        }\n        // lowerMax <= measured peak <= upperMax => REVENUE: the player takes a part of the DSO staking\n        else if(peak > marketsData[idx].maxPowerLower && peak <= marketsData[idx].maxPowerUpper) {\n            // Calculate the revenue amount\n            peakDiff = peak.sub(marketsData[idx].maxPowerLower);\n\n            tokensForDso = peakDiff.mul(marketsData[idx].revenueFactor);\n\n            tokensForPlayer = marketsData[idx].dsoStaking.sub(tokensForDso);\n\n            tokensForPlayer = tokensForPlayer.add(marketsData[idx].playerStaking);\n\n            // Set the market result as a player revenue\n            marketsData[idx].result = MarketResult.Revenue;\n\n            emit Revenue(tokensForDso, tokensForPlayer);\n        }\n        // measured peak > upperMax => PENALTY/CRASH: the DSO takes a part of/all the revenue staking\n        else {\n            // Calculate the penalty amount\n            peakDiff = peak.sub(marketsData[idx].maxPowerUpper);\n\n            tokensForDso = peakDiff.mul(marketsData[idx].penaltyFactor);\n\n            // If the penalty exceeds the staking => the DSO takes it all\n            if(tokensForDso >= marketsData[idx].playerStaking) {\n                tokensForPlayer = 0;\n                tokensForDso = marketsData[idx].dsoStaking.add(marketsData[idx].playerStaking);\n\n                // Set the market result as a player penalty\n                marketsData[idx].result = MarketResult.Crash;\n\n                emit Crash(tokensForDso, tokensForPlayer);\n            }\n            else {\n                tokensForPlayer = marketsData[idx].playerStaking.sub(tokensForDso);\n                tokensForDso = tokensForDso.add(marketsData[idx].dsoStaking);\n\n                // Set the market result as a player penalty\n                marketsData[idx].result = MarketResult.Penalty;\n\n                emit Penalty(tokensForDso, tokensForPlayer);\n            }\n        }\n\n        _saveAndTransfer(idx, tokensForDso, tokensForPlayer);\n    }\n\n    /// Save the final result and transfer the tokens\n    /// @param idx market identifier\n    /// @param _tokensForDso NGTSs to send to DSO\n    /// @param _tokensForPlayer NGTSs to send to player\n    function _saveAndTransfer(uint idx, uint _tokensForDso, uint _tokensForPlayer) private {\n        // save the amounts to send\n        marketsData[idx].tknReleasedToDso = _tokensForDso;\n        marketsData[idx].tknReleasedToPlayer = _tokensForPlayer;\n\n        // Send tokens to dso\n        if(marketsData[idx].result != MarketResult.Prize) {\n            ngt.transfer(dso, marketsData[idx].tknReleasedToDso);\n        }\n\n        // Send tokens to player\n        if(marketsData[idx].result != MarketResult.Crash) {\n            ngt.transfer(marketsData[idx].player, marketsData[idx].tknReleasedToPlayer);\n        }\n\n        // Close the market\n        marketsData[idx].state = MarketState.Closed;\n        emit Closed(marketsData[idx].result);\n    }\n\n    /// Takes the final decision to close the market whene player and DSO do not agree about the settlement, performed by the referee\n    /// @param idx market identifier\n    /// @param _powerPeak maximum power consumed by the player during the market\n    function performRefereeDecision(uint idx, uint _powerPeak) public {\n\n        // the sender has to be the referee\n        require(msg.sender == marketsData[idx].referee);\n\n        // the market is waiting for the referee decision\n        require(marketsData[idx].state == MarketState.WaitingForTheReferee);\n\n        // Calculate the total staking\n        uint tokensStaked = marketsData[idx].dsoStaking.add(marketsData[idx].playerStaking);\n\n        // Calculate the tokens for the referee\n        uint tokensForReferee = tokensStaked.div(uint(100).div(marketsData[idx].revPercReferee));\n\n        // Calculate the tokens amount for the honest actor\n        uint tokensForHonest = tokensStaked.sub(tokensForReferee);\n\n        emit RefereeIntervention(marketsData[idx].player, marketsData[idx].startTime, idx);\n\n        // Check if the DSO declared the truth (i.e. player cheated)\n        if(marketsData[idx].powerPeakDeclaredByDso == _powerPeak)\n        {\n            marketsData[idx].result = MarketResult.PlayerCheating;\n\n            // Send tokens to the honest DSO\n            ngt.transfer(dso, tokensForHonest);\n\n            emit PlayerCheated();\n        }\n        // Check if the player declared the truth (i.e. DSO cheated)\n        else if(marketsData[idx].powerPeakDeclaredByPlayer == _powerPeak)\n        {\n            marketsData[idx].result = MarketResult.DSOCheating;\n\n            // Send tokens to the honest player\n            ngt.transfer(marketsData[idx].player, tokensForHonest);\n\n            emit DSOCheated();\n        }\n        // Both dso and player are cheating, the token are sent to address(0) :D\n        else {\n            marketsData[idx].result = MarketResult.Cheaters;\n\n            // There are no honest, the related tokens are burnt\n            ngt.burn(tokensForHonest);\n\n            emit DSOAndPlayerCheated();\n            emit BurntTokens(tokensForHonest);\n        }\n\n        // Send tokens to referee\n        ngt.transfer(marketsData[idx].referee, tokensForReferee);\n\n        // Close the market\n        marketsData[idx].state = MarketState.ClosedAfterJudgement;\n        emit ClosedAfterJudgement(marketsData[idx].result);\n    }\n\n    /// Check the revenue factor\n    /// @param _maxLow lower limit of the maximum power consumed by player\n    /// @param _maxUp upper limit of the maximum power consumed by player\n    /// @param _revFactor revenue factor [NGT/kW]\n    /// @param _stakedNGTs DSO staking of NGTs token\n    /// @return TRUE if the the checking is passed, FALSE otherwise\n    function _checkRevenueFactor(uint _maxUp, uint _maxLow, uint _revFactor, uint _stakedNGTs) pure private returns(bool) {\n        uint calcNGTs = _maxUp.sub(_maxLow);\n        calcNGTs = calcNGTs.mul(_revFactor);\n\n        // (_maxUp - _maxLow)*_revFactor == _stakedNGTs\n        return calcNGTs == _stakedNGTs;\n    }\n\n    /// Check the startTime\n    /// @param _ts timestamp\n    /// @param _type market type (0: monthly, 1: daily, 2: hourly)\n    /// @return TRUE if timestamp is correct (i.e. YYYY-MM-01 00:00:00: monthly, YYYY-MM-DD 00:00:00: daily, YYYY-MM-DD HH:00:00: hourly), FALSE otherwise\n    function _checkStartTime(uint _ts, MarketType _type) pure private returns(bool) {\n\n        // Monthly market type\n        if(_type == MarketType.Monthly) {\n            return (getDay(_ts) == 1) && (getHour(_ts) == 0) && (getMinute(_ts) == 0) && (getSecond(_ts) == 0);\n        }\n        // Daily market type\n        else if(_type == MarketType.Daily) {\n            return (getHour(_ts) == 0) && (getMinute(_ts) == 0) && (getSecond(_ts) == 0);\n        }\n        // Hourly market type\n        else if(_type == MarketType.Hourly) {\n            return (getMinute(_ts) == 0) && (getSecond(_ts) == 0);\n        }\n        // Wrong market type\n        else {\n            return false;\n        }\n    }\n\n    /// Calculate the endTime timestamp\n    /// @param _ts starting market timestamp\n    /// @param _type market type (0: monthly, 1: daily, 2: hourly)\n    /// @return ending startime\n    function _calcEndTime(uint _ts, MarketType _type) pure private returns(uint) {\n        // Monthly market type\n        if(_type == MarketType.Monthly) {\n            return toTimestamp(getYear(_ts), getMonth(_ts), getDaysInMonth(getMonth(_ts), getYear(_ts)), 23, 59, 59);\n        }\n        // Daily market type\n        else if(_type == MarketType.Daily) {\n            return toTimestamp(getYear(_ts), getMonth(_ts), getDay(_ts), 23, 59, 59);\n        }\n        // Hourly market type\n        else if(_type == MarketType.Hourly) {\n            return toTimestamp(getYear(_ts), getMonth(_ts), getDay(_ts), getHour(_ts), 59, 59);\n        }\n        // Wrong market type\n        else {\n            return 0;\n        }\n    }\n\n    /// Calculate the idx of market hashing an address (the player) and a timestamp (the market starting time)\n    /// @param _addr address wallet\n    /// @param _ts timestamp\n    /// @param _type market type (0: monthly, 1: daily, 2: hourly)\n    /// @return hash of the two inputs\n    function calcIdx(address _addr, uint _ts, MarketType _type) pure public returns(uint) {\n        return uint(keccak256(abi.encodePacked(_addr, _ts, _type)));\n    }\n\n    // Getters\n\n    /// @param _idx market identifier\n    /// @return market state (0: None, 1: NotRunning, 2: WaitingConfirmToStart, 3: Running, 4: WaitingConfirmToEnd, 5: WaitingForTheReferee, 6: Closed, 7: ClosedAfterJudgement, 8: ClosedNotPlayed)\n    function getState(uint _idx) view public returns(MarketState)       { return marketsData[_idx].state; }\n\n    /// @param _idx market identifier\n    /// @return market final result (0: None, 1: NotDecided, 2: NotPlayed, 3: Prize, 4: Revenue, 5: Penalty, 6: Crash, 7: DSOCheating, 8: PlayerCheating, 9: Cheaters)\n    function getResult(uint _idx) view public returns(MarketResult)     { return marketsData[_idx].result; }\n\n    /// @param _idx market identifier\n    /// @return the player address\n    function getPlayer(uint _idx) view public returns(address)          { return marketsData[_idx].player; }\n\n    /// @param _idx market identifier\n    /// @return the referee address\n    function getReferee(uint _idx) view public returns(address)         { return marketsData[_idx].referee; }\n\n    /// @param _idx market identifier\n    /// @return the market starting timestamp\n    function getStartTime(uint _idx) view public returns(uint)          { return marketsData[_idx].startTime; }\n\n    /// @param _idx market identifier\n    /// @return the market ending timestamp\n    function getEndTime(uint _idx) view public returns(uint)            { return marketsData[_idx].endTime; }\n\n    /// @param _idx market identifier\n    /// @return the lower maximum limit\n    function getLowerMaximum(uint _idx) view public returns(uint)       { return marketsData[_idx].maxPowerLower; }\n\n    /// @param _idx market identifier\n    /// @return the upper maximum limit\n    function getUpperMaximum(uint _idx) view public returns(uint)       { return marketsData[_idx].maxPowerUpper; }\n\n    /// @param _idx market identifier\n    /// @return the revenue factor\n    function getRevenueFactor(uint _idx) view public returns(uint)      { return marketsData[_idx].revenueFactor; }\n\n    /// @param _idx market identifier\n    /// @return the penalty factor\n    function getPenaltyFactor(uint _idx) view public returns(uint)      { return marketsData[_idx].penaltyFactor; }\n\n    /// @param _idx market identifier\n    /// @return the DSO staked amount\n    function getDsoStake(uint _idx) view public returns(uint)           { return marketsData[_idx].dsoStaking; }\n\n    /// @param _idx market identifier\n    /// @return the player staked amount\n    function getPlayerStake(uint _idx) view public returns(uint)        { return marketsData[_idx].playerStaking; }\n\n    /// @param _idx market identifier\n    /// @return TRUE if the market exists, FALSE otherwise\n    function getFlag(uint _idx) view public returns(bool)                { return marketsFlag[_idx];}\n}\n",
  "sourcePath": "/home/queen/run/truffle/nemogrid-smart-contracts/contracts/MarketsManager.sol",
  "compiler": {
    "name": "solc",
    "version": "0.4.24+commit.e67f0147.Emscripten.clang"
  },
  "schemaVersion": "2.0.1",
  "updatedAt": "2018-12-12T15:21:06.001Z"
}