{
  "contractName": "NGT",
  "abi": [
    {
      "constant": true,
      "inputs": [],
      "name": "name",
      "outputs": [
        {
          "name": "",
          "type": "string"
        }
      ],
      "payable": false,
      "stateMutability": "view",
      "type": "function"
    },
    {
      "constant": false,
      "inputs": [
        {
          "name": "spender",
          "type": "address"
        },
        {
          "name": "value",
          "type": "uint256"
        }
      ],
      "name": "approve",
      "outputs": [
        {
          "name": "",
          "type": "bool"
        }
      ],
      "payable": false,
      "stateMutability": "nonpayable",
      "type": "function"
    },
    {
      "constant": true,
      "inputs": [],
      "name": "totalSupply",
      "outputs": [
        {
          "name": "",
          "type": "uint256"
        }
      ],
      "payable": false,
      "stateMutability": "view",
      "type": "function"
    },
    {
      "constant": false,
      "inputs": [
        {
          "name": "from",
          "type": "address"
        },
        {
          "name": "to",
          "type": "address"
        },
        {
          "name": "value",
          "type": "uint256"
        }
      ],
      "name": "transferFrom",
      "outputs": [
        {
          "name": "",
          "type": "bool"
        }
      ],
      "payable": false,
      "stateMutability": "nonpayable",
      "type": "function"
    },
    {
      "constant": true,
      "inputs": [],
      "name": "decimals",
      "outputs": [
        {
          "name": "",
          "type": "uint8"
        }
      ],
      "payable": false,
      "stateMutability": "view",
      "type": "function"
    },
    {
      "constant": false,
      "inputs": [
        {
          "name": "spender",
          "type": "address"
        },
        {
          "name": "addedValue",
          "type": "uint256"
        }
      ],
      "name": "increaseAllowance",
      "outputs": [
        {
          "name": "",
          "type": "bool"
        }
      ],
      "payable": false,
      "stateMutability": "nonpayable",
      "type": "function"
    },
    {
      "constant": false,
      "inputs": [
        {
          "name": "to",
          "type": "address"
        },
        {
          "name": "value",
          "type": "uint256"
        }
      ],
      "name": "mint",
      "outputs": [
        {
          "name": "",
          "type": "bool"
        }
      ],
      "payable": false,
      "stateMutability": "nonpayable",
      "type": "function"
    },
    {
      "constant": false,
      "inputs": [
        {
          "name": "value",
          "type": "uint256"
        }
      ],
      "name": "burn",
      "outputs": [],
      "payable": false,
      "stateMutability": "nonpayable",
      "type": "function"
    },
    {
      "constant": true,
      "inputs": [
        {
          "name": "owner",
          "type": "address"
        }
      ],
      "name": "balanceOf",
      "outputs": [
        {
          "name": "",
          "type": "uint256"
        }
      ],
      "payable": false,
      "stateMutability": "view",
      "type": "function"
    },
    {
      "constant": false,
      "inputs": [],
      "name": "renounceOwnership",
      "outputs": [],
      "payable": false,
      "stateMutability": "nonpayable",
      "type": "function"
    },
    {
      "constant": false,
      "inputs": [
        {
          "name": "from",
          "type": "address"
        },
        {
          "name": "value",
          "type": "uint256"
        }
      ],
      "name": "burnFrom",
      "outputs": [],
      "payable": false,
      "stateMutability": "nonpayable",
      "type": "function"
    },
    {
      "constant": true,
      "inputs": [],
      "name": "owner",
      "outputs": [
        {
          "name": "",
          "type": "address"
        }
      ],
      "payable": false,
      "stateMutability": "view",
      "type": "function"
    },
    {
      "constant": true,
      "inputs": [],
      "name": "isOwner",
      "outputs": [
        {
          "name": "",
          "type": "bool"
        }
      ],
      "payable": false,
      "stateMutability": "view",
      "type": "function"
    },
    {
      "constant": true,
      "inputs": [],
      "name": "symbol",
      "outputs": [
        {
          "name": "",
          "type": "string"
        }
      ],
      "payable": false,
      "stateMutability": "view",
      "type": "function"
    },
    {
      "constant": false,
      "inputs": [
        {
          "name": "account",
          "type": "address"
        }
      ],
      "name": "addMinter",
      "outputs": [],
      "payable": false,
      "stateMutability": "nonpayable",
      "type": "function"
    },
    {
      "constant": false,
      "inputs": [],
      "name": "renounceMinter",
      "outputs": [],
      "payable": false,
      "stateMutability": "nonpayable",
      "type": "function"
    },
    {
      "constant": false,
      "inputs": [
        {
          "name": "spender",
          "type": "address"
        },
        {
          "name": "subtractedValue",
          "type": "uint256"
        }
      ],
      "name": "decreaseAllowance",
      "outputs": [
        {
          "name": "",
          "type": "bool"
        }
      ],
      "payable": false,
      "stateMutability": "nonpayable",
      "type": "function"
    },
    {
      "constant": false,
      "inputs": [
        {
          "name": "to",
          "type": "address"
        },
        {
          "name": "value",
          "type": "uint256"
        }
      ],
      "name": "transfer",
      "outputs": [
        {
          "name": "",
          "type": "bool"
        }
      ],
      "payable": false,
      "stateMutability": "nonpayable",
      "type": "function"
    },
    {
      "constant": true,
      "inputs": [
        {
          "name": "account",
          "type": "address"
        }
      ],
      "name": "isMinter",
      "outputs": [
        {
          "name": "",
          "type": "bool"
        }
      ],
      "payable": false,
      "stateMutability": "view",
      "type": "function"
    },
    {
      "constant": true,
      "inputs": [
        {
          "name": "owner",
          "type": "address"
        },
        {
          "name": "spender",
          "type": "address"
        }
      ],
      "name": "allowance",
      "outputs": [
        {
          "name": "",
          "type": "uint256"
        }
      ],
      "payable": false,
      "stateMutability": "view",
      "type": "function"
    },
    {
      "constant": false,
      "inputs": [
        {
          "name": "newOwner",
          "type": "address"
        }
      ],
      "name": "transferOwnership",
      "outputs": [],
      "payable": false,
      "stateMutability": "nonpayable",
      "type": "function"
    },
    {
      "anonymous": false,
      "inputs": [
        {
          "indexed": true,
          "name": "previousOwner",
          "type": "address"
        },
        {
          "indexed": true,
          "name": "newOwner",
          "type": "address"
        }
      ],
      "name": "OwnershipTransferred",
      "type": "event"
    },
    {
      "anonymous": false,
      "inputs": [
        {
          "indexed": true,
          "name": "account",
          "type": "address"
        }
      ],
      "name": "MinterAdded",
      "type": "event"
    },
    {
      "anonymous": false,
      "inputs": [
        {
          "indexed": true,
          "name": "account",
          "type": "address"
        }
      ],
      "name": "MinterRemoved",
      "type": "event"
    },
    {
      "anonymous": false,
      "inputs": [
        {
          "indexed": true,
          "name": "from",
          "type": "address"
        },
        {
          "indexed": true,
          "name": "to",
          "type": "address"
        },
        {
          "indexed": false,
          "name": "value",
          "type": "uint256"
        }
      ],
      "name": "Transfer",
      "type": "event"
    },
    {
      "anonymous": false,
      "inputs": [
        {
          "indexed": true,
          "name": "owner",
          "type": "address"
        },
        {
          "indexed": true,
          "name": "spender",
          "type": "address"
        },
        {
          "indexed": false,
          "name": "value",
          "type": "uint256"
        }
      ],
      "name": "Approval",
      "type": "event"
    }
  ],
  "bytecode": "0x60c0604052600e60808190527f4e656d6f4772696420546f6b656e00000000000000000000000000000000000060a0908152620000409160059190620001e0565b506040805180820190915260038082527f4e4754000000000000000000000000000000000000000000000000000000000060209092019182526200008791600691620001e0565b506007805460ff19166012179055620000a933640100000000620000fb810204565b60048054600160a060020a031916331790819055604051600160a060020a0391909116906000907f8be0079c531659141344cd1fd0a4f28419497f9722a3daafe3b4186f6b6457e0908290a362000285565b6200011660038264010000000062000d5a6200014d82021704565b604051600160a060020a038216907f6ae172837ea30b801fbfcdd4108aa1d5bf8ff775444fd70256b44e6bf3dfc3f690600090a250565b600160a060020a03811615156200016357600080fd5b620001788282640100000000620001a8810204565b156200018357600080fd5b600160a060020a0316600090815260209190915260409020805460ff19166001179055565b6000600160a060020a0382161515620001c057600080fd5b50600160a060020a03166000908152602091909152604090205460ff1690565b828054600181600116156101000203166002900490600052602060002090601f016020900481019282601f106200022357805160ff191683800117855562000253565b8280016001018555821562000253579182015b828111156200025357825182559160200191906001019062000236565b506200026192915062000265565b5090565b6200028291905b808211156200026157600081556001016200026c565b90565b610e2080620002956000396000f30060806040526004361061011c5763ffffffff7c010000000000000000000000000000000000000000000000000000000060003504166306fdde038114610121578063095ea7b3146101ab57806318160ddd146101e357806323b872dd1461020a578063313ce56714610234578063395093511461025f57806340c10f191461028357806342966c68146102a757806370a08231146102c1578063715018a6146102e257806379cc6790146102f75780638da5cb5b1461031b5780638f32d59b1461034c57806395d89b4114610361578063983b2d56146103765780639865027514610397578063a457c2d7146103ac578063a9059cbb146103d0578063aa271e1a146103f4578063dd62ed3e14610415578063f2fde38b1461043c575b600080fd5b34801561012d57600080fd5b5061013661045d565b6040805160208082528351818301528351919283929083019185019080838360005b83811015610170578181015183820152602001610158565b50505050905090810190601f16801561019d5780820380516001836020036101000a031916815260200191505b509250505060405180910390f35b3480156101b757600080fd5b506101cf600160a060020a03600435166024356104eb565b604080519115158252519081900360200190f35b3480156101ef57600080fd5b506101f8610569565b60408051918252519081900360200190f35b34801561021657600080fd5b506101cf600160a060020a036004358116906024351660443561056f565b34801561024057600080fd5b5061024961060c565b6040805160ff9092168252519081900360200190f35b34801561026b57600080fd5b506101cf600160a060020a0360043516602435610615565b34801561028f57600080fd5b506101cf600160a060020a03600435166024356106c5565b3480156102b357600080fd5b506102bf6004356106ee565b005b3480156102cd57600080fd5b506101f8600160a060020a03600435166106fb565b3480156102ee57600080fd5b506102bf610716565b34801561030357600080fd5b506102bf600160a060020a0360043516602435610780565b34801561032757600080fd5b5061033061078e565b60408051600160a060020a039092168252519081900360200190f35b34801561035857600080fd5b506101cf61079d565b34801561036d57600080fd5b506101366107ae565b34801561038257600080fd5b506102bf600160a060020a0360043516610809565b3480156103a357600080fd5b506102bf610826565b3480156103b857600080fd5b506101cf600160a060020a0360043516602435610831565b3480156103dc57600080fd5b506101cf600160a060020a036004351660243561087c565b34801561040057600080fd5b506101cf600160a060020a0360043516610889565b34801561042157600080fd5b506101f8600160a060020a03600435811690602435166108a2565b34801561044857600080fd5b506102bf600160a060020a03600435166108cd565b6005805460408051602060026001851615610100026000190190941693909304601f810184900484028201840190925281815292918301828280156104e35780601f106104b8576101008083540402835291602001916104e3565b820191906000526020600020905b8154815290600101906020018083116104c657829003601f168201915b505050505081565b6000600160a060020a038316151561050257600080fd5b336000818152600160209081526040808320600160a060020a03881680855290835292819020869055805186815290519293927f8c5be1e5ebec7d5bd14f71427d1e84f3dd0314c0f7b2291e5b200ac8c7c3b925929181900390910190a350600192915050565b60025490565b600160a060020a038316600090815260016020908152604080832033845290915281205482111561059f57600080fd5b600160a060020a03841660009081526001602090815260408083203384529091529020546105d3908363ffffffff6108e916565b600160a060020a0385166000908152600160209081526040808320338452909152902055610602848484610900565b5060019392505050565b60075460ff1681565b6000600160a060020a038316151561062c57600080fd5b336000908152600160209081526040808320600160a060020a0387168452909152902054610660908363ffffffff6109f216565b336000818152600160209081526040808320600160a060020a0389168085529083529281902085905580519485525191937f8c5be1e5ebec7d5bd14f71427d1e84f3dd0314c0f7b2291e5b200ac8c7c3b925929081900390910190a350600192915050565b60006106d033610889565b15156106db57600080fd5b6106e58383610a0b565b50600192915050565b6106f83382610ab5565b50565b600160a060020a031660009081526020819052604090205490565b61071e61079d565b151561072957600080fd5b600454604051600091600160a060020a0316907f8be0079c531659141344cd1fd0a4f28419497f9722a3daafe3b4186f6b6457e0908390a36004805473ffffffffffffffffffffffffffffffffffffffff19169055565b61078a8282610b83565b5050565b600454600160a060020a031690565b600454600160a060020a0316331490565b6006805460408051602060026001851615610100026000190190941693909304601f810184900484028201840190925281815292918301828280156104e35780601f106104b8576101008083540402835291602001916104e3565b61081233610889565b151561081d57600080fd5b6106f881610c15565b61082f33610c5d565b565b6000600160a060020a038316151561084857600080fd5b336000908152600160209081526040808320600160a060020a0387168452909152902054610660908363ffffffff6108e916565b60006106e5338484610900565b600061089c60038363ffffffff610ca516565b92915050565b600160a060020a03918216600090815260016020908152604080832093909416825291909152205490565b6108d561079d565b15156108e057600080fd5b6106f881610cdc565b600080838311156108f957600080fd5b5050900390565b600160a060020a03831660009081526020819052604090205481111561092557600080fd5b600160a060020a038216151561093a57600080fd5b600160a060020a038316600090815260208190526040902054610963908263ffffffff6108e916565b600160a060020a038085166000908152602081905260408082209390935590841681522054610998908263ffffffff6109f216565b600160a060020a038084166000818152602081815260409182902094909455805185815290519193928716927fddf252ad1be2c89b69c2b068fc378daa952ba7f163c4a11628f55a4df523b3ef92918290030190a3505050565b600082820183811015610a0457600080fd5b9392505050565b600160a060020a0382161515610a2057600080fd5b600254610a33908263ffffffff6109f216565b600255600160a060020a038216600090815260208190526040902054610a5f908263ffffffff6109f216565b600160a060020a0383166000818152602081815260408083209490945583518581529351929391927fddf252ad1be2c89b69c2b068fc378daa952ba7f163c4a11628f55a4df523b3ef9281900390910190a35050565b600160a060020a0382161515610aca57600080fd5b600160a060020a038216600090815260208190526040902054811115610aef57600080fd5b600254610b02908263ffffffff6108e916565b600255600160a060020a038216600090815260208190526040902054610b2e908263ffffffff6108e916565b600160a060020a038316600081815260208181526040808320949094558351858152935191937fddf252ad1be2c89b69c2b068fc378daa952ba7f163c4a11628f55a4df523b3ef929081900390910190a35050565b600160a060020a0382166000908152600160209081526040808320338452909152902054811115610bb357600080fd5b600160a060020a0382166000908152600160209081526040808320338452909152902054610be7908263ffffffff6108e916565b600160a060020a038316600090815260016020908152604080832033845290915290205561078a8282610ab5565b610c2660038263ffffffff610d5a16565b604051600160a060020a038216907f6ae172837ea30b801fbfcdd4108aa1d5bf8ff775444fd70256b44e6bf3dfc3f690600090a250565b610c6e60038263ffffffff610da816565b604051600160a060020a038216907fe94479a9f7e1952cc78f2d6baab678adc1b772d936c6583def489e524cb6669290600090a250565b6000600160a060020a0382161515610cbc57600080fd5b50600160a060020a03166000908152602091909152604090205460ff1690565b600160a060020a0381161515610cf157600080fd5b600454604051600160a060020a038084169216907f8be0079c531659141344cd1fd0a4f28419497f9722a3daafe3b4186f6b6457e090600090a36004805473ffffffffffffffffffffffffffffffffffffffff1916600160a060020a0392909216919091179055565b600160a060020a0381161515610d6f57600080fd5b610d798282610ca5565b15610d8357600080fd5b600160a060020a0316600090815260209190915260409020805460ff19166001179055565b600160a060020a0381161515610dbd57600080fd5b610dc78282610ca5565b1515610dd257600080fd5b600160a060020a0316600090815260209190915260409020805460ff191690555600a165627a7a72305820b23f9bd8378e6fae8a70d509f47c57e0ecc396bfbd564c2c95a23c8afd2e805e0029",
  "source": "pragma solidity ^0.4.23;\n\nimport \"../node_modules/openzeppelin-solidity/contracts/token/ERC20/ERC20Mintable.sol\";\nimport \"../node_modules/openzeppelin-solidity/contracts/token/ERC20/ERC20Burnable.sol\";\nimport \"../node_modules/openzeppelin-solidity/contracts/ownership/Ownable.sol\";\nimport \"../node_modules/openzeppelin-solidity/contracts/math/SafeMath.sol\";\n\ncontract NGT is ERC20Mintable, ERC20Burnable, Ownable {\n    using SafeMath for uint;\n\n    string public name = \"NemoGrid Token\";\n    string public symbol = \"NGT\";\n    uint8 public decimals = 18;\n}\n",
  "sourcePath": "/home/queen/run/truffle/nemogrid-smart-contracts/contracts/NGT.sol",
  "compiler": {
    "name": "solc",
    "version": "0.4.24+commit.e67f0147.Emscripten.clang"
  },
  "schemaVersion": "2.0.1",
  "updatedAt": "2018-12-13T09:56:14.265Z"
}